{
  "abi": [
    {
      "anonymous": false,
      "inputs": [
        {
          "indexed": false,
          "internalType": "address",
          "name": "collateralAddr",
          "type": "address"
        },
        {
          "indexed": false,
          "internalType": "bool",
          "name": "addded",
          "type": "bool"
        },
        {
          "indexed": false,
          "internalType": "address",
          "name": "defaultStrategyAddr",
          "type": "address"
        }
      ],
      "name": "CollateralAdded",
      "type": "event"
    },
    {
      "anonymous": false,
      "inputs": [
        {
          "indexed": true,
          "internalType": "address",
          "name": "collateralAddr",
          "type": "address"
        },
        {
          "indexed": true,
          "internalType": "address",
          "name": "depositStrategyAddr",
          "type": "address"
        },
        {
          "indexed": false,
          "internalType": "uint256",
          "name": "allocateAmount",
          "type": "uint256"
        }
      ],
      "name": "CollateralAllocated",
      "type": "event"
    },
    {
      "anonymous": false,
      "inputs": [
        {
          "indexed": true,
          "internalType": "address",
          "name": "previousOwner",
          "type": "address"
        },
        {
          "indexed": true,
          "internalType": "address",
          "name": "newOwner",
          "type": "address"
        }
      ],
      "name": "OwnershipTransferred",
      "type": "event"
    },
    {
      "anonymous": false,
      "inputs": [
        {
          "indexed": false,
          "internalType": "address",
          "name": "strategyAddr",
          "type": "address"
        },
        {
          "indexed": false,
          "internalType": "bool",
          "name": "added",
          "type": "bool"
        }
      ],
      "name": "StrategyAdded",
      "type": "event"
    },
    {
      "anonymous": false,
      "inputs": [
        {
          "indexed": false,
          "internalType": "uint256",
          "name": "totalValueLocked",
          "type": "uint256"
        },
        {
          "indexed": false,
          "internalType": "uint256",
          "name": "totalValueInVault",
          "type": "uint256"
        },
        {
          "indexed": false,
          "internalType": "uint256",
          "name": "totalValueInStrategies",
          "type": "uint256"
        }
      ],
      "name": "TotalValueLocked",
      "type": "event"
    },
    {
      "inputs": [
        {
          "internalType": "address",
          "name": "_collateralAddr",
          "type": "address"
        },
        {
          "internalType": "address",
          "name": "_defaultStrategyAddr",
          "type": "address"
        }
      ],
      "name": "addCollateral",
      "outputs": [],
      "stateMutability": "nonpayable",
      "type": "function"
    },
    {
      "inputs": [
        {
          "internalType": "address",
          "name": "_strategyAddr",
          "type": "address"
        }
      ],
      "name": "addStrategy",
      "outputs": [],
      "stateMutability": "nonpayable",
      "type": "function"
    },
    {
      "inputs": [
        {
          "internalType": "uint256",
          "name": "",
          "type": "uint256"
        }
      ],
      "name": "allCollateralAddr",
      "outputs": [
        {
          "internalType": "address",
          "name": "",
          "type": "address"
        }
      ],
      "stateMutability": "view",
      "type": "function"
    },
    {
      "inputs": [
        {
          "internalType": "uint256",
          "name": "",
          "type": "uint256"
        }
      ],
      "name": "allStrategyAddr",
      "outputs": [
        {
          "internalType": "address",
          "name": "",
          "type": "address"
        }
      ],
      "stateMutability": "view",
      "type": "function"
    },
    {
      "inputs": [],
      "name": "allocate",
      "outputs": [],
      "stateMutability": "nonpayable",
      "type": "function"
    },
    {
      "inputs": [
        {
          "internalType": "address",
          "name": "",
          "type": "address"
        }
      ],
      "name": "collateralsInfo",
      "outputs": [
        {
          "internalType": "address",
          "name": "collateralAddr",
          "type": "address"
        },
        {
          "internalType": "bool",
          "name": "added",
          "type": "bool"
        },
        {
          "internalType": "address",
          "name": "defaultStrategyAddr",
          "type": "address"
        }
      ],
      "stateMutability": "view",
      "type": "function"
    },
    {
      "inputs": [],
      "name": "harvest",
      "outputs": [],
      "stateMutability": "nonpayable",
      "type": "function"
    },
    {
      "inputs": [],
      "name": "initialize",
      "outputs": [],
      "stateMutability": "nonpayable",
      "type": "function"
    },
    {
      "inputs": [],
      "name": "owner",
      "outputs": [
        {
          "internalType": "address",
          "name": "",
          "type": "address"
        }
      ],
      "stateMutability": "view",
      "type": "function"
    },
    {
      "inputs": [],
      "name": "renounceOwnership",
      "outputs": [],
      "stateMutability": "nonpayable",
      "type": "function"
    },
    {
      "inputs": [
        {
          "internalType": "address",
          "name": "",
          "type": "address"
        }
      ],
      "name": "strategiesInfo",
      "outputs": [
        {
          "internalType": "address",
          "name": "strategyAddr",
          "type": "address"
        },
        {
          "internalType": "bool",
          "name": "added",
          "type": "bool"
        }
      ],
      "stateMutability": "view",
      "type": "function"
    },
    {
      "inputs": [],
      "name": "totalValueInStrategies",
      "outputs": [
        {
          "internalType": "uint256",
          "name": "value",
          "type": "uint256"
        }
      ],
      "stateMutability": "view",
      "type": "function"
    },
    {
      "inputs": [],
      "name": "totalValueInVault",
      "outputs": [
        {
          "internalType": "uint256",
          "name": "value",
          "type": "uint256"
        }
      ],
      "stateMutability": "view",
      "type": "function"
    },
    {
      "inputs": [],
      "name": "totalValueLocked",
      "outputs": [
        {
          "internalType": "uint256",
          "name": "value",
          "type": "uint256"
        }
      ],
      "stateMutability": "view",
      "type": "function"
    },
    {
      "inputs": [
        {
          "internalType": "address",
          "name": "newOwner",
          "type": "address"
        }
      ],
      "name": "transferOwnership",
      "outputs": [],
      "stateMutability": "nonpayable",
      "type": "function"
    }
  ],
  "bytecode": "608060405234801561001057600080fd5b50611fbe806100206000396000f3fe608060405234801561001057600080fd5b50600436106100f55760003560e01c80638d52fec611610097578063c2f21e0f11610066578063c2f21e0f1461023f578063c6783af11461025c578063ec18154e1461028a578063f2fde38b14610292576100f5565b80638d52fec6146101955780638da5cb5b146101e657806396577a1a146101ee578063abaa991614610237576100f5565b8063715018a6116100d3578063715018a614610144578063792f58741461014c5780637e428dac146101855780638129fc1c1461018d576100f5565b806317852264146100fa578063223e5479146101145780634641257d1461013c575b600080fd5b6101026102b8565b60408051918252519081900360200190f35b61013a6004803603602081101561012a57600080fd5b50356001600160a01b0316610364565b005b61013a6104e3565b61013a6106e2565b6101696004803603602081101561016257600080fd5b503561078e565b604080516001600160a01b039092168252519081900360200190f35b6101026107b5565b61013a610856565b6101bb600480360360208110156101ab57600080fd5b50356001600160a01b0316610908565b604080516001600160a01b039485168152921515602084015292168183015290519081900360600190f35b610169610939565b6102146004803603602081101561020457600080fd5b50356001600160a01b0316610948565b604080516001600160a01b03909316835290151560208301528051918290030190f35b61013a61096f565b6101696004803603602081101561025557600080fd5b5035610ca9565b61013a6004803603604081101561027257600080fd5b506001600160a01b0381358116916020013516610cb6565b610102610f00565b61013a600480360360208110156102a857600080fd5b50356001600160a01b0316610f20565b6000805b609954811015610360576102ce611e57565b60976000609984815481106102df57fe5b6000918252602080832091909101546001600160a01b03908116845283820194909452604092830190912082516060810184528154808616808352600160a01b90910460ff16151593820193909352600190910154909316918301919091529091506103559061034e90611023565b849061125d565b9250506001016102bc565b5090565b61036c6112c0565b6001600160a01b031661037d610939565b6001600160a01b0316146103c6576040805162461bcd60e51b81526020600482018190526024820152600080516020611f13833981519152604482015290519081900360640190fd5b6001600160a01b038116600090815260986020526040902054600160a01b900460ff161561042c576040805162461bcd60e51b815260206004820152600e60248201526d14dd1c985d1959de48185919195960921b604482015290519081900360640190fd5b6001600160a01b0381811660008181526098602090815260408083208054600160a01b6001600160a01b0319918216871760ff60a01b191617808355609a805460018181018355919097527f44da158ba27f9252712a74ff6a55c5d531f69609f1f6e7f17c4443a8e2089be490960180549190981691161790955580519384529083019190915280517f835a6c4fc865a810f7943cfca478cada6bf307d7dbd75892a046aee7ea3cc2149281900390910190a15050565b6104eb6112c0565b6001600160a01b03166104fc610939565b6001600160a01b031614610545576040805162461bcd60e51b81526020600482018190526024820152600080516020611f13833981519152604482015290519081900360640190fd5b6002606554141561059d576040805162461bcd60e51b815260206004820152601f60248201527f5265656e7472616e637947756172643a207265656e7472616e742063616c6c00604482015290519081900360640190fd5b600260655560006105ac611e57565b60005b6099548110156106d85760976000609983815481106105ca57fe5b60009182526020808320909101546001600160a01b03908116845283820194909452604092830190912082516060810184528154808616825260ff600160a01b9091041615159281019290925260010154909216908201819052909250156106d05781604001519250826001600160a01b031663a400326f83600001516040518263ffffffff1660e01b815260040180826001600160a01b0316815260200191505060206040518083038186803b15801561068457600080fd5b505afa158015610698573d6000803e3d6000fd5b505050506040513d60208110156106ae57600080fd5b50516106b957600080fd5b6106c78383600001516112c4565b6106d083611410565b6001016105af565b5050600160655550565b6106ea6112c0565b6001600160a01b03166106fb610939565b6001600160a01b031614610744576040805162461bcd60e51b81526020600482018190526024820152600080516020611f13833981519152604482015290519081900360640190fd5b6033546040516000916001600160a01b0316907f8be0079c531659141344cd1fd0a4f28419497f9722a3daafe3b4186f6b6457e0908390a3603380546001600160a01b0319169055565b609a818154811061079b57fe5b6000918252602090912001546001600160a01b0316905081565b6000805b609954811015610360576107cb611e57565b60976000609984815481106107dc57fe5b6000918252602080832091909101546001600160a01b03908116845283820194909452604092830190912082516060810184528154808616808352600160a01b90910460ff161515938201939093526001909101549093169183019190915290915061084b9061034e90611561565b9250506001016107b9565b600054610100900460ff168061086f575061086f611696565b8061087d575060005460ff16155b6108b85760405162461bcd60e51b815260040180806020018281038252602e815260200180611ec4602e913960400191505060405180910390fd5b600054610100900460ff161580156108e3576000805460ff1961ff0019909116610100171660011790555b6108eb6116a7565b6108f3611744565b8015610905576000805461ff00191690555b50565b609760205260009081526040902080546001909101546001600160a01b0380831692600160a01b900460ff16911683565b6033546001600160a01b031690565b6098602052600090815260409020546001600160a01b03811690600160a01b900460ff1682565b6109776112c0565b6001600160a01b0316610988610939565b6001600160a01b0316146109d1576040805162461bcd60e51b81526020600482018190526024820152600080516020611f13833981519152604482015290519081900360640190fd5b60026065541415610a29576040805162461bcd60e51b815260206004820152601f60248201527f5265656e7472616e637947756172643a207265656e7472616e742063616c6c00604482015290519081900360640190fd5b60026065556000610a38611e57565b60005b6099548110156106d8576097600060998381548110610a5657fe5b60009182526020808320909101546001600160a01b03908116845283820194909452604092830190912082516060810184528154808616825260ff600160a01b909104161515928101929092526001015490921690820181905290925015610ca15781604001519250826001600160a01b031663a400326f83600001516040518263ffffffff1660e01b815260040180826001600160a01b0316815260200191505060206040518083038186803b158015610b1057600080fd5b505afa158015610b24573d6000803e3d6000fd5b505050506040513d6020811015610b3a57600080fd5b5051610b4557600080fd5b8151604080516370a0823160e01b815230600482015290516000926001600160a01b0316916370a08231916024808301926020929190829003018186803b158015610b8f57600080fd5b505afa158015610ba3573d6000803e3d6000fd5b505050506040513d6020811015610bb957600080fd5b505160408401518451919250610bd9916001600160a01b031690836117d9565b836001600160a01b03166347e7ef248460000151836040518363ffffffff1660e01b815260040180836001600160a01b0316815260200182815260200192505050600060405180830381600087803b158015610c3457600080fd5b505af1158015610c48573d6000803e3d6000fd5b5050505082604001516001600160a01b031683600001516001600160a01b03167f290d3382f5cb307945388c5a4ab3a9e3695c8706927c11c35eb329620a310961836040518082815260200191505060405180910390a3505b600101610a3b565b6099818154811061079b57fe5b610cbe6112c0565b6001600160a01b0316610ccf610939565b6001600160a01b031614610d18576040805162461bcd60e51b81526020600482018190526024820152600080516020611f13833981519152604482015290519081900360640190fd5b6001600160a01b038216600090815260976020526040902054600160a01b900460ff1615610d80576040805162461bcd60e51b815260206004820152601060248201526f10dbdb1b185d195c985b08185919195960821b604482015290519081900360640190fd5b6012826001600160a01b031663313ce5676040518163ffffffff1660e01b815260040160206040518083038186803b158015610dbb57600080fd5b505afa158015610dcf573d6000803e3d6000fd5b505050506040513d6020811015610de557600080fd5b505160ff161115610e275760405162461bcd60e51b815260040180806020018281038252602c815260200180611f33602c913960400191505060405180910390fd5b6001600160a01b038083166000818152609760209081526040808320805460ff60a01b196001600160a01b0319918216871716600160a01b908117808455600180850180548c8c1690861681179091556099805492830181559098527f72a152ddfb8e864297c917af52ea6c1c68aead0fee1a62673fcc7e0c94979d000180549093169816979097179055805482519586529590950460ff1615159184019190915282810191909152517f1fb89240e26efaf4d05f8f118b830b58a8b4843ceefb4c360c2673fbf0189d609181900360600190a1505050565b6000610f1b610f0d6102b8565b610f156107b5565b9061125d565b905090565b610f286112c0565b6001600160a01b0316610f39610939565b6001600160a01b031614610f82576040805162461bcd60e51b81526020600482018190526024820152600080516020611f13833981519152604482015290519081900360640190fd5b6001600160a01b038116610fc75760405162461bcd60e51b8152600401808060200182810382526026815260200180611e786026913960400191505060405180910390fd5b6033546040516001600160a01b038084169216907f8be0079c531659141344cd1fd0a4f28419497f9722a3daafe3b4186f6b6457e090600090a3603380546001600160a01b0319166001600160a01b0392909216919091179055565b600061102d611e57565b506001600160a01b03828116600090815260976020908152604091829020825160608101845281548086168252600160a01b900460ff1615159281019290925260010154909216908201819052611088576000915050611258565b600081604001519050806001600160a01b031663a400326f83600001516040518263ffffffff1660e01b815260040180826001600160a01b0316815260200191505060206040518083038186803b1580156110e257600080fd5b505afa1580156110f6573d6000803e3d6000fd5b505050506040513d602081101561110c57600080fd5b505161111d57600092505050611258565b60006305f5e100905060006305f5e1009050600084600001516001600160a01b031663313ce5676040518163ffffffff1660e01b815260040160206040518083038186803b15801561116e57600080fd5b505afa158015611182573d6000803e3d6000fd5b505050506040513d602081101561119857600080fd5b5051855160408051632fa8a91360e11b81526001600160a01b039283166004820152905160ff909316935060009261123292869261122c9289928b1691635f515226916024808301926020929190829003018186803b1580156111fa57600080fd5b505afa15801561120e573d6000803e3d6000fd5b505050506040513d602081101561122457600080fd5b50519061182b565b90611884565b9050600061124e6112446012856118eb565b8390600a0a61182b565b9750505050505050505b919050565b6000828201838110156112b7576040805162461bcd60e51b815260206004820152601b60248201527f536166654d6174683a206164646974696f6e206f766572666c6f770000000000604482015290519081900360640190fd5b90505b92915050565b3390565b6112cc611e57565b506001600160a01b038181166000818152609760209081526040808320815160608101835281548088168252600160a01b900460ff161515818501526001909101548616818301528151638d2c872760e01b8152600481019590955290519094929392871692638d2c8727926024808301939192829003018186803b15801561135457600080fd5b505afa158015611368573d6000803e3d6000fd5b505050506040513d602081101561137e57600080fd5b50519050801561140a578151604080516369ad748960e01b81523060048201526001600160a01b03928316602482015281516000938493908916926369ad7489926044808301939282900301818787803b1580156113db57600080fd5b505af11580156113ef573d6000803e3d6000fd5b505050506040513d604081101561140557600080fd5b505050505b50505050565b6000816001600160a01b031663125f9e336040518163ffffffff1660e01b815260040160206040518083038186803b15801561144b57600080fd5b505afa15801561145f573d6000803e3d6000fd5b505050506040513d602081101561147557600080fd5b505160408051631d4814c160e21b815290519192506000916001600160a01b038516916375205304916004808301926020929190829003018186803b1580156114bd57600080fd5b505afa1580156114d1573d6000803e3d6000fd5b505050506040513d60208110156114e757600080fd5b50519050801561155c576000836001600160a01b0316630242241d6040518163ffffffff1660e01b8152600401602060405180830381600087803b15801561152e57600080fd5b505af1158015611542573d6000803e3d6000fd5b505050506040513d602081101561155857600080fd5b5050505b505050565b600061156b611e57565b506001600160a01b03828116600090815260976020908152604080832081516060810183528154808716808352600160a01b90910460ff1615158286015260019092015490951685830152815163313ce56760e01b815291516305f5e100948594909363313ce5679260048083019392829003018186803b1580156115ef57600080fd5b505afa158015611603573d6000803e3d6000fd5b505050506040513d602081101561161957600080fd5b50518451604080516370a0823160e01b8152306004820152905160ff909316935060009261167892869261122c9289926001600160a01b0316916370a08231916024808301926020929190829003018186803b1580156111fa57600080fd5b9050600061168a6112446012856118eb565b98975050505050505050565b60006116a130611948565b15905090565b600054610100900460ff16806116c057506116c0611696565b806116ce575060005460ff16155b6117095760405162461bcd60e51b815260040180806020018281038252602e815260200180611ec4602e913960400191505060405180910390fd5b600054610100900460ff16158015611734576000805460ff1961ff0019909116610100171660011790555b61173c61194e565b6108f36119ee565b600054610100900460ff168061175d575061175d611696565b8061176b575060005460ff16155b6117a65760405162461bcd60e51b815260040180806020018281038252602e815260200180611ec4602e913960400191505060405180910390fd5b600054610100900460ff161580156117d1576000805460ff1961ff0019909116610100171660011790555b6108f3611ae7565b604080516001600160a01b038416602482015260448082018490528251808303909101815260649091019091526020810180516001600160e01b031663a9059cbb60e01b17905261155c908490611b8d565b60008261183a575060006112ba565b8282028284828161184757fe5b04146112b75760405162461bcd60e51b8152600401808060200182810382526021815260200180611ef26021913960400191505060405180910390fd5b60008082116118da576040805162461bcd60e51b815260206004820152601a60248201527f536166654d6174683a206469766973696f6e206279207a65726f000000000000604482015290519081900360640190fd5b8183816118e357fe5b049392505050565b600082821115611942576040805162461bcd60e51b815260206004820152601e60248201527f536166654d6174683a207375627472616374696f6e206f766572666c6f770000604482015290519081900360640190fd5b50900390565b3b151590565b600054610100900460ff16806119675750611967611696565b80611975575060005460ff16155b6119b05760405162461bcd60e51b815260040180806020018281038252602e815260200180611ec4602e913960400191505060405180910390fd5b600054610100900460ff161580156108f3576000805460ff1961ff0019909116610100171660011790558015610905576000805461ff001916905550565b600054610100900460ff1680611a075750611a07611696565b80611a15575060005460ff16155b611a505760405162461bcd60e51b815260040180806020018281038252602e815260200180611ec4602e913960400191505060405180910390fd5b600054610100900460ff16158015611a7b576000805460ff1961ff0019909116610100171660011790555b6000611a856112c0565b603380546001600160a01b0319166001600160a01b038316908117909155604051919250906000907f8be0079c531659141344cd1fd0a4f28419497f9722a3daafe3b4186f6b6457e0908290a3508015610905576000805461ff001916905550565b600054610100900460ff1680611b005750611b00611696565b80611b0e575060005460ff16155b611b495760405162461bcd60e51b815260040180806020018281038252602e815260200180611ec4602e913960400191505060405180910390fd5b600054610100900460ff16158015611b74576000805460ff1961ff0019909116610100171660011790555b60016065558015610905576000805461ff001916905550565b6060611be2826040518060400160405280602081526020017f5361666545524332303a206c6f772d6c6576656c2063616c6c206661696c6564815250856001600160a01b0316611c3e9092919063ffffffff16565b80519091501561155c57808060200190516020811015611c0157600080fd5b505161155c5760405162461bcd60e51b815260040180806020018281038252602a815260200180611f5f602a913960400191505060405180910390fd5b6060611c4d8484600085611c57565b90505b9392505050565b606082471015611c985760405162461bcd60e51b8152600401808060200182810382526026815260200180611e9e6026913960400191505060405180910390fd5b611ca185611948565b611cf2576040805162461bcd60e51b815260206004820152601d60248201527f416464726573733a2063616c6c20746f206e6f6e2d636f6e7472616374000000604482015290519081900360640190fd5b60006060866001600160a01b031685876040518082805190602001908083835b60208310611d315780518252601f199092019160209182019101611d12565b6001836020036101000a03801982511681845116808217855250505050505090500191505060006040518083038185875af1925050503d8060008114611d93576040519150601f19603f3d011682016040523d82523d6000602084013e611d98565b606091505b5091509150611da8828286611db3565b979650505050505050565b60608315611dc2575081611c50565b825115611dd25782518084602001fd5b8160405162461bcd60e51b81526004018080602001828103825283818151815260200191508051906020019080838360005b83811015611e1c578181015183820152602001611e04565b50505050905090810190601f168015611e495780820380516001836020036101000a031916815260200191505b509250505060405180910390fd5b60408051606081018252600080825260208201819052918101919091529056fe4f776e61626c653a206e6577206f776e657220697320746865207a65726f2061646472657373416464726573733a20696e73756666696369656e742062616c616e636520666f722063616c6c496e697469616c697a61626c653a20636f6e747261637420697320616c726561647920696e697469616c697a6564536166654d6174683a206d756c7469706c69636174696f6e206f766572666c6f774f776e61626c653a2063616c6c6572206973206e6f7420746865206f776e6572436f6c6c61746572616c7320646563696d616c73206e65656420746f206265206c657373207468616e2031385361666545524332303a204552433230206f7065726174696f6e20646964206e6f742073756363656564a2646970667358221220264547be0853199ccb58a4216f9488d8d9e6350441b24fd170b066a3b43279d664736f6c634300060c0033",
  "bytecodeSha1": "c48676ec0738091e1f3f3472c32006ce163f7f0c",
  "compiler": {
    "evm_version": "istanbul",
    "optimizer": {
      "enabled": true,
      "runs": 200
    },
    "version": "0.6.12+commit.27d51765"
  },
  "contractName": "Vault",
  "language": "Solidity",
  "natspec": {
    "author": "Sperax Foundation",
    "details": "Control Mint, Redeem, Allocate and Rebase of USDsLive on Arbitrum Layer 2",
    "kind": "dev",
    "methods": {
      "addCollateral(address,address)": {
        "details": "authorize an ERC20 token as one of the collaterals supported by USDs mint/redeem",
        "params": {
          "_collateralAddr": "ERC20 address to be authorized",
          "_defaultStrategyAddr": "strategy address of which the collateral is allocated into on allocate()"
        }
      },
      "addStrategy(address)": {
        "details": "authorize an strategy",
        "params": {
          "_strategyAddr": "strategy contract address"
        }
      },
      "allocate()": {
        "details": "allocate collateral on this contract into strategies."
      },
      "harvest()": {
        "details": "VaultCore does not organically hold/generate USDs, transfer USDs to\t\tVaultCore manually",
        "notice": "harvest USDs held by VaultCore"
      },
      "initialize()": {
        "details": "contract initializer"
      },
      "owner()": {
        "details": "Returns the address of the current owner."
      },
      "renounceOwnership()": {
        "details": "Leaves the contract without owner. It will not be possible to call `onlyOwner` functions anymore. Can only be called by the current owner. NOTE: Renouncing ownership will leave the contract without an owner, thereby removing any functionality that is only available to the owner."
      },
      "totalValueInStrategies()": {
        "details": "the value of collaterals in the strategies"
      },
      "totalValueInVault()": {
        "details": "the value of collaterals in this contract"
      },
      "totalValueLocked()": {
        "details": "the value of collaterals in this contract and strategies"
      },
      "transferOwnership(address)": {
        "details": "Transfers ownership of the contract to a new account (`newOwner`). Can only be called by the current owner."
      }
    },
    "title": "Vault of USDs protocol",
    "version": 1
  },
  "opcodes": "PUSH1 0x80 PUSH1 0x40 MSTORE CALLVALUE DUP1 ISZERO PUSH2 0x10 JUMPI PUSH1 0x0 DUP1 REVERT JUMPDEST POP PUSH1 0x4 CALLDATASIZE LT PUSH2 0xF5 JUMPI PUSH1 0x0 CALLDATALOAD PUSH1 0xE0 SHR DUP1 PUSH4 0x8D52FEC6 GT PUSH2 0x97 JUMPI DUP1 PUSH4 0xC2F21E0F GT PUSH2 0x66 JUMPI DUP1 PUSH4 0xC2F21E0F EQ PUSH2 0x23F JUMPI DUP1 PUSH4 0xC6783AF1 EQ PUSH2 0x25C JUMPI DUP1 PUSH4 0xEC18154E EQ PUSH2 0x28A JUMPI DUP1 PUSH4 0xF2FDE38B EQ PUSH2 0x292 JUMPI PUSH2 0xF5 JUMP JUMPDEST DUP1 PUSH4 0x8D52FEC6 EQ PUSH2 0x195 JUMPI DUP1 PUSH4 0x8DA5CB5B EQ PUSH2 0x1E6 JUMPI DUP1 PUSH4 0x96577A1A EQ PUSH2 0x1EE JUMPI DUP1 PUSH4 0xABAA9916 EQ PUSH2 0x237 JUMPI PUSH2 0xF5 JUMP JUMPDEST DUP1 PUSH4 0x715018A6 GT PUSH2 0xD3 JUMPI DUP1 PUSH4 0x715018A6 EQ PUSH2 0x144 JUMPI DUP1 PUSH4 0x792F5874 EQ PUSH2 0x14C JUMPI DUP1 PUSH4 0x7E428DAC EQ PUSH2 0x185 JUMPI DUP1 PUSH4 0x8129FC1C EQ PUSH2 0x18D JUMPI PUSH2 0xF5 JUMP JUMPDEST DUP1 PUSH4 0x17852264 EQ PUSH2 0xFA JUMPI DUP1 PUSH4 0x223E5479 EQ PUSH2 0x114 JUMPI DUP1 PUSH4 0x4641257D EQ PUSH2 0x13C JUMPI JUMPDEST PUSH1 0x0 DUP1 REVERT JUMPDEST PUSH2 0x102 PUSH2 0x2B8 JUMP JUMPDEST PUSH1 0x40 DUP1 MLOAD SWAP2 DUP3 MSTORE MLOAD SWAP1 DUP2 SWAP1 SUB PUSH1 0x20 ADD SWAP1 RETURN JUMPDEST PUSH2 0x13A PUSH1 0x4 DUP1 CALLDATASIZE SUB PUSH1 0x20 DUP2 LT ISZERO PUSH2 0x12A JUMPI PUSH1 0x0 DUP1 REVERT JUMPDEST POP CALLDATALOAD PUSH1 0x1 PUSH1 0x1 PUSH1 0xA0 SHL SUB AND PUSH2 0x364 JUMP JUMPDEST STOP JUMPDEST PUSH2 0x13A PUSH2 0x4E3 JUMP JUMPDEST PUSH2 0x13A PUSH2 0x6E2 JUMP JUMPDEST PUSH2 0x169 PUSH1 0x4 DUP1 CALLDATASIZE SUB PUSH1 0x20 DUP2 LT ISZERO PUSH2 0x162 JUMPI PUSH1 0x0 DUP1 REVERT JUMPDEST POP CALLDATALOAD PUSH2 0x78E JUMP JUMPDEST PUSH1 0x40 DUP1 MLOAD PUSH1 0x1 PUSH1 0x1 PUSH1 0xA0 SHL SUB SWAP1 SWAP3 AND DUP3 MSTORE MLOAD SWAP1 DUP2 SWAP1 SUB PUSH1 0x20 ADD SWAP1 RETURN JUMPDEST PUSH2 0x102 PUSH2 0x7B5 JUMP JUMPDEST PUSH2 0x13A PUSH2 0x856 JUMP JUMPDEST PUSH2 0x1BB PUSH1 0x4 DUP1 CALLDATASIZE SUB PUSH1 0x20 DUP2 LT ISZERO PUSH2 0x1AB JUMPI PUSH1 0x0 DUP1 REVERT JUMPDEST POP CALLDATALOAD PUSH1 0x1 PUSH1 0x1 PUSH1 0xA0 SHL SUB AND PUSH2 0x908 JUMP JUMPDEST PUSH1 0x40 DUP1 MLOAD PUSH1 0x1 PUSH1 0x1 PUSH1 0xA0 SHL SUB SWAP5 DUP6 AND DUP2 MSTORE SWAP3 ISZERO ISZERO PUSH1 0x20 DUP5 ADD MSTORE SWAP3 AND DUP2 DUP4 ADD MSTORE SWAP1 MLOAD SWAP1 DUP2 SWAP1 SUB PUSH1 0x60 ADD SWAP1 RETURN JUMPDEST PUSH2 0x169 PUSH2 0x939 JUMP JUMPDEST PUSH2 0x214 PUSH1 0x4 DUP1 CALLDATASIZE SUB PUSH1 0x20 DUP2 LT ISZERO PUSH2 0x204 JUMPI PUSH1 0x0 DUP1 REVERT JUMPDEST POP CALLDATALOAD PUSH1 0x1 PUSH1 0x1 PUSH1 0xA0 SHL SUB AND PUSH2 0x948 JUMP JUMPDEST PUSH1 0x40 DUP1 MLOAD PUSH1 0x1 PUSH1 0x1 PUSH1 0xA0 SHL SUB SWAP1 SWAP4 AND DUP4 MSTORE SWAP1 ISZERO ISZERO PUSH1 0x20 DUP4 ADD MSTORE DUP1 MLOAD SWAP2 DUP3 SWAP1 SUB ADD SWAP1 RETURN JUMPDEST PUSH2 0x13A PUSH2 0x96F JUMP JUMPDEST PUSH2 0x169 PUSH1 0x4 DUP1 CALLDATASIZE SUB PUSH1 0x20 DUP2 LT ISZERO PUSH2 0x255 JUMPI PUSH1 0x0 DUP1 REVERT JUMPDEST POP CALLDATALOAD PUSH2 0xCA9 JUMP JUMPDEST PUSH2 0x13A PUSH1 0x4 DUP1 CALLDATASIZE SUB PUSH1 0x40 DUP2 LT ISZERO PUSH2 0x272 JUMPI PUSH1 0x0 DUP1 REVERT JUMPDEST POP PUSH1 0x1 PUSH1 0x1 PUSH1 0xA0 SHL SUB DUP2 CALLDATALOAD DUP2 AND SWAP2 PUSH1 0x20 ADD CALLDATALOAD AND PUSH2 0xCB6 JUMP JUMPDEST PUSH2 0x102 PUSH2 0xF00 JUMP JUMPDEST PUSH2 0x13A PUSH1 0x4 DUP1 CALLDATASIZE SUB PUSH1 0x20 DUP2 LT ISZERO PUSH2 0x2A8 JUMPI PUSH1 0x0 DUP1 REVERT JUMPDEST POP CALLDATALOAD PUSH1 0x1 PUSH1 0x1 PUSH1 0xA0 SHL SUB AND PUSH2 0xF20 JUMP JUMPDEST PUSH1 0x0 DUP1 JUMPDEST PUSH1 0x99 SLOAD DUP2 LT ISZERO PUSH2 0x360 JUMPI PUSH2 0x2CE PUSH2 0x1E57 JUMP JUMPDEST PUSH1 0x97 PUSH1 0x0 PUSH1 0x99 DUP5 DUP2 SLOAD DUP2 LT PUSH2 0x2DF JUMPI INVALID JUMPDEST PUSH1 0x0 SWAP2 DUP3 MSTORE PUSH1 0x20 DUP1 DUP4 KECCAK256 SWAP2 SWAP1 SWAP2 ADD SLOAD PUSH1 0x1 PUSH1 0x1 PUSH1 0xA0 SHL SUB SWAP1 DUP2 AND DUP5 MSTORE DUP4 DUP3 ADD SWAP5 SWAP1 SWAP5 MSTORE PUSH1 0x40 SWAP3 DUP4 ADD SWAP1 SWAP2 KECCAK256 DUP3 MLOAD PUSH1 0x60 DUP2 ADD DUP5 MSTORE DUP2 SLOAD DUP1 DUP7 AND DUP1 DUP4 MSTORE PUSH1 0x1 PUSH1 0xA0 SHL SWAP1 SWAP2 DIV PUSH1 0xFF AND ISZERO ISZERO SWAP4 DUP3 ADD SWAP4 SWAP1 SWAP4 MSTORE PUSH1 0x1 SWAP1 SWAP2 ADD SLOAD SWAP1 SWAP4 AND SWAP2 DUP4 ADD SWAP2 SWAP1 SWAP2 MSTORE SWAP1 SWAP2 POP PUSH2 0x355 SWAP1 PUSH2 0x34E SWAP1 PUSH2 0x1023 JUMP JUMPDEST DUP5 SWAP1 PUSH2 0x125D JUMP JUMPDEST SWAP3 POP POP PUSH1 0x1 ADD PUSH2 0x2BC JUMP JUMPDEST POP SWAP1 JUMP JUMPDEST PUSH2 0x36C PUSH2 0x12C0 JUMP JUMPDEST PUSH1 0x1 PUSH1 0x1 PUSH1 0xA0 SHL SUB AND PUSH2 0x37D PUSH2 0x939 JUMP JUMPDEST PUSH1 0x1 PUSH1 0x1 PUSH1 0xA0 SHL SUB AND EQ PUSH2 0x3C6 JUMPI PUSH1 0x40 DUP1 MLOAD PUSH3 0x461BCD PUSH1 0xE5 SHL DUP2 MSTORE PUSH1 0x20 PUSH1 0x4 DUP3 ADD DUP2 SWAP1 MSTORE PUSH1 0x24 DUP3 ADD MSTORE PUSH1 0x0 DUP1 MLOAD PUSH1 0x20 PUSH2 0x1F13 DUP4 CODECOPY DUP2 MLOAD SWAP2 MSTORE PUSH1 0x44 DUP3 ADD MSTORE SWAP1 MLOAD SWAP1 DUP2 SWAP1 SUB PUSH1 0x64 ADD SWAP1 REVERT JUMPDEST PUSH1 0x1 PUSH1 0x1 PUSH1 0xA0 SHL SUB DUP2 AND PUSH1 0x0 SWAP1 DUP2 MSTORE PUSH1 0x98 PUSH1 0x20 MSTORE PUSH1 0x40 SWAP1 KECCAK256 SLOAD PUSH1 0x1 PUSH1 0xA0 SHL SWAP1 DIV PUSH1 0xFF AND ISZERO PUSH2 0x42C JUMPI PUSH1 0x40 DUP1 MLOAD PUSH3 0x461BCD PUSH1 0xE5 SHL DUP2 MSTORE PUSH1 0x20 PUSH1 0x4 DUP3 ADD MSTORE PUSH1 0xE PUSH1 0x24 DUP3 ADD MSTORE PUSH14 0x14DD1C985D1959DE481859191959 PUSH1 0x92 SHL PUSH1 0x44 DUP3 ADD MSTORE SWAP1 MLOAD SWAP1 DUP2 SWAP1 SUB PUSH1 0x64 ADD SWAP1 REVERT JUMPDEST PUSH1 0x1 PUSH1 0x1 PUSH1 0xA0 SHL SUB DUP2 DUP2 AND PUSH1 0x0 DUP2 DUP2 MSTORE PUSH1 0x98 PUSH1 0x20 SWAP1 DUP2 MSTORE PUSH1 0x40 DUP1 DUP4 KECCAK256 DUP1 SLOAD PUSH1 0x1 PUSH1 0xA0 SHL PUSH1 0x1 PUSH1 0x1 PUSH1 0xA0 SHL SUB NOT SWAP2 DUP3 AND DUP8 OR PUSH1 0xFF PUSH1 0xA0 SHL NOT AND OR DUP1 DUP4 SSTORE PUSH1 0x9A DUP1 SLOAD PUSH1 0x1 DUP2 DUP2 ADD DUP4 SSTORE SWAP2 SWAP1 SWAP8 MSTORE PUSH32 0x44DA158BA27F9252712A74FF6A55C5D531F69609F1F6E7F17C4443A8E2089BE4 SWAP1 SWAP7 ADD DUP1 SLOAD SWAP2 SWAP1 SWAP9 AND SWAP2 AND OR SWAP1 SWAP6 SSTORE DUP1 MLOAD SWAP4 DUP5 MSTORE SWAP1 DUP4 ADD SWAP2 SWAP1 SWAP2 MSTORE DUP1 MLOAD PUSH32 0x835A6C4FC865A810F7943CFCA478CADA6BF307D7DBD75892A046AEE7EA3CC214 SWAP3 DUP2 SWAP1 SUB SWAP1 SWAP2 ADD SWAP1 LOG1 POP POP JUMP JUMPDEST PUSH2 0x4EB PUSH2 0x12C0 JUMP JUMPDEST PUSH1 0x1 PUSH1 0x1 PUSH1 0xA0 SHL SUB AND PUSH2 0x4FC PUSH2 0x939 JUMP JUMPDEST PUSH1 0x1 PUSH1 0x1 PUSH1 0xA0 SHL SUB AND EQ PUSH2 0x545 JUMPI PUSH1 0x40 DUP1 MLOAD PUSH3 0x461BCD PUSH1 0xE5 SHL DUP2 MSTORE PUSH1 0x20 PUSH1 0x4 DUP3 ADD DUP2 SWAP1 MSTORE PUSH1 0x24 DUP3 ADD MSTORE PUSH1 0x0 DUP1 MLOAD PUSH1 0x20 PUSH2 0x1F13 DUP4 CODECOPY DUP2 MLOAD SWAP2 MSTORE PUSH1 0x44 DUP3 ADD MSTORE SWAP1 MLOAD SWAP1 DUP2 SWAP1 SUB PUSH1 0x64 ADD SWAP1 REVERT JUMPDEST PUSH1 0x2 PUSH1 0x65 SLOAD EQ ISZERO PUSH2 0x59D JUMPI PUSH1 0x40 DUP1 MLOAD PUSH3 0x461BCD PUSH1 0xE5 SHL DUP2 MSTORE PUSH1 0x20 PUSH1 0x4 DUP3 ADD MSTORE PUSH1 0x1F PUSH1 0x24 DUP3 ADD MSTORE PUSH32 0x5265656E7472616E637947756172643A207265656E7472616E742063616C6C00 PUSH1 0x44 DUP3 ADD MSTORE SWAP1 MLOAD SWAP1 DUP2 SWAP1 SUB PUSH1 0x64 ADD SWAP1 REVERT JUMPDEST PUSH1 0x2 PUSH1 0x65 SSTORE PUSH1 0x0 PUSH2 0x5AC PUSH2 0x1E57 JUMP JUMPDEST PUSH1 0x0 JUMPDEST PUSH1 0x99 SLOAD DUP2 LT ISZERO PUSH2 0x6D8 JUMPI PUSH1 0x97 PUSH1 0x0 PUSH1 0x99 DUP4 DUP2 SLOAD DUP2 LT PUSH2 0x5CA JUMPI INVALID JUMPDEST PUSH1 0x0 SWAP2 DUP3 MSTORE PUSH1 0x20 DUP1 DUP4 KECCAK256 SWAP1 SWAP2 ADD SLOAD PUSH1 0x1 PUSH1 0x1 PUSH1 0xA0 SHL SUB SWAP1 DUP2 AND DUP5 MSTORE DUP4 DUP3 ADD SWAP5 SWAP1 SWAP5 MSTORE PUSH1 0x40 SWAP3 DUP4 ADD SWAP1 SWAP2 KECCAK256 DUP3 MLOAD PUSH1 0x60 DUP2 ADD DUP5 MSTORE DUP2 SLOAD DUP1 DUP7 AND DUP3 MSTORE PUSH1 0xFF PUSH1 0x1 PUSH1 0xA0 SHL SWAP1 SWAP2 DIV AND ISZERO ISZERO SWAP3 DUP2 ADD SWAP3 SWAP1 SWAP3 MSTORE PUSH1 0x1 ADD SLOAD SWAP1 SWAP3 AND SWAP1 DUP3 ADD DUP2 SWAP1 MSTORE SWAP1 SWAP3 POP ISZERO PUSH2 0x6D0 JUMPI DUP2 PUSH1 0x40 ADD MLOAD SWAP3 POP DUP3 PUSH1 0x1 PUSH1 0x1 PUSH1 0xA0 SHL SUB AND PUSH4 0xA400326F DUP4 PUSH1 0x0 ADD MLOAD PUSH1 0x40 MLOAD DUP3 PUSH4 0xFFFFFFFF AND PUSH1 0xE0 SHL DUP2 MSTORE PUSH1 0x4 ADD DUP1 DUP3 PUSH1 0x1 PUSH1 0x1 PUSH1 0xA0 SHL SUB AND DUP2 MSTORE PUSH1 0x20 ADD SWAP2 POP POP PUSH1 0x20 PUSH1 0x40 MLOAD DUP1 DUP4 SUB DUP2 DUP7 DUP1 EXTCODESIZE ISZERO DUP1 ISZERO PUSH2 0x684 JUMPI PUSH1 0x0 DUP1 REVERT JUMPDEST POP GAS STATICCALL ISZERO DUP1 ISZERO PUSH2 0x698 JUMPI RETURNDATASIZE PUSH1 0x0 DUP1 RETURNDATACOPY RETURNDATASIZE PUSH1 0x0 REVERT JUMPDEST POP POP POP POP PUSH1 0x40 MLOAD RETURNDATASIZE PUSH1 0x20 DUP2 LT ISZERO PUSH2 0x6AE JUMPI PUSH1 0x0 DUP1 REVERT JUMPDEST POP MLOAD PUSH2 0x6B9 JUMPI PUSH1 0x0 DUP1 REVERT JUMPDEST PUSH2 0x6C7 DUP4 DUP4 PUSH1 0x0 ADD MLOAD PUSH2 0x12C4 JUMP JUMPDEST PUSH2 0x6D0 DUP4 PUSH2 0x1410 JUMP JUMPDEST PUSH1 0x1 ADD PUSH2 0x5AF JUMP JUMPDEST POP POP PUSH1 0x1 PUSH1 0x65 SSTORE POP JUMP JUMPDEST PUSH2 0x6EA PUSH2 0x12C0 JUMP JUMPDEST PUSH1 0x1 PUSH1 0x1 PUSH1 0xA0 SHL SUB AND PUSH2 0x6FB PUSH2 0x939 JUMP JUMPDEST PUSH1 0x1 PUSH1 0x1 PUSH1 0xA0 SHL SUB AND EQ PUSH2 0x744 JUMPI PUSH1 0x40 DUP1 MLOAD PUSH3 0x461BCD PUSH1 0xE5 SHL DUP2 MSTORE PUSH1 0x20 PUSH1 0x4 DUP3 ADD DUP2 SWAP1 MSTORE PUSH1 0x24 DUP3 ADD MSTORE PUSH1 0x0 DUP1 MLOAD PUSH1 0x20 PUSH2 0x1F13 DUP4 CODECOPY DUP2 MLOAD SWAP2 MSTORE PUSH1 0x44 DUP3 ADD MSTORE SWAP1 MLOAD SWAP1 DUP2 SWAP1 SUB PUSH1 0x64 ADD SWAP1 REVERT JUMPDEST PUSH1 0x33 SLOAD PUSH1 0x40 MLOAD PUSH1 0x0 SWAP2 PUSH1 0x1 PUSH1 0x1 PUSH1 0xA0 SHL SUB AND SWAP1 PUSH32 0x8BE0079C531659141344CD1FD0A4F28419497F9722A3DAAFE3B4186F6B6457E0 SWAP1 DUP4 SWAP1 LOG3 PUSH1 0x33 DUP1 SLOAD PUSH1 0x1 PUSH1 0x1 PUSH1 0xA0 SHL SUB NOT AND SWAP1 SSTORE JUMP JUMPDEST PUSH1 0x9A DUP2 DUP2 SLOAD DUP2 LT PUSH2 0x79B JUMPI INVALID JUMPDEST PUSH1 0x0 SWAP2 DUP3 MSTORE PUSH1 0x20 SWAP1 SWAP2 KECCAK256 ADD SLOAD PUSH1 0x1 PUSH1 0x1 PUSH1 0xA0 SHL SUB AND SWAP1 POP DUP2 JUMP JUMPDEST PUSH1 0x0 DUP1 JUMPDEST PUSH1 0x99 SLOAD DUP2 LT ISZERO PUSH2 0x360 JUMPI PUSH2 0x7CB PUSH2 0x1E57 JUMP JUMPDEST PUSH1 0x97 PUSH1 0x0 PUSH1 0x99 DUP5 DUP2 SLOAD DUP2 LT PUSH2 0x7DC JUMPI INVALID JUMPDEST PUSH1 0x0 SWAP2 DUP3 MSTORE PUSH1 0x20 DUP1 DUP4 KECCAK256 SWAP2 SWAP1 SWAP2 ADD SLOAD PUSH1 0x1 PUSH1 0x1 PUSH1 0xA0 SHL SUB SWAP1 DUP2 AND DUP5 MSTORE DUP4 DUP3 ADD SWAP5 SWAP1 SWAP5 MSTORE PUSH1 0x40 SWAP3 DUP4 ADD SWAP1 SWAP2 KECCAK256 DUP3 MLOAD PUSH1 0x60 DUP2 ADD DUP5 MSTORE DUP2 SLOAD DUP1 DUP7 AND DUP1 DUP4 MSTORE PUSH1 0x1 PUSH1 0xA0 SHL SWAP1 SWAP2 DIV PUSH1 0xFF AND ISZERO ISZERO SWAP4 DUP3 ADD SWAP4 SWAP1 SWAP4 MSTORE PUSH1 0x1 SWAP1 SWAP2 ADD SLOAD SWAP1 SWAP4 AND SWAP2 DUP4 ADD SWAP2 SWAP1 SWAP2 MSTORE SWAP1 SWAP2 POP PUSH2 0x84B SWAP1 PUSH2 0x34E SWAP1 PUSH2 0x1561 JUMP JUMPDEST SWAP3 POP POP PUSH1 0x1 ADD PUSH2 0x7B9 JUMP JUMPDEST PUSH1 0x0 SLOAD PUSH2 0x100 SWAP1 DIV PUSH1 0xFF AND DUP1 PUSH2 0x86F JUMPI POP PUSH2 0x86F PUSH2 0x1696 JUMP JUMPDEST DUP1 PUSH2 0x87D JUMPI POP PUSH1 0x0 SLOAD PUSH1 0xFF AND ISZERO JUMPDEST PUSH2 0x8B8 JUMPI PUSH1 0x40 MLOAD PUSH3 0x461BCD PUSH1 0xE5 SHL DUP2 MSTORE PUSH1 0x4 ADD DUP1 DUP1 PUSH1 0x20 ADD DUP3 DUP2 SUB DUP3 MSTORE PUSH1 0x2E DUP2 MSTORE PUSH1 0x20 ADD DUP1 PUSH2 0x1EC4 PUSH1 0x2E SWAP2 CODECOPY PUSH1 0x40 ADD SWAP2 POP POP PUSH1 0x40 MLOAD DUP1 SWAP2 SUB SWAP1 REVERT JUMPDEST PUSH1 0x0 SLOAD PUSH2 0x100 SWAP1 DIV PUSH1 0xFF AND ISZERO DUP1 ISZERO PUSH2 0x8E3 JUMPI PUSH1 0x0 DUP1 SLOAD PUSH1 0xFF NOT PUSH2 0xFF00 NOT SWAP1 SWAP2 AND PUSH2 0x100 OR AND PUSH1 0x1 OR SWAP1 SSTORE JUMPDEST PUSH2 0x8EB PUSH2 0x16A7 JUMP JUMPDEST PUSH2 0x8F3 PUSH2 0x1744 JUMP JUMPDEST DUP1 ISZERO PUSH2 0x905 JUMPI PUSH1 0x0 DUP1 SLOAD PUSH2 0xFF00 NOT AND SWAP1 SSTORE JUMPDEST POP JUMP JUMPDEST PUSH1 0x97 PUSH1 0x20 MSTORE PUSH1 0x0 SWAP1 DUP2 MSTORE PUSH1 0x40 SWAP1 KECCAK256 DUP1 SLOAD PUSH1 0x1 SWAP1 SWAP2 ADD SLOAD PUSH1 0x1 PUSH1 0x1 PUSH1 0xA0 SHL SUB DUP1 DUP4 AND SWAP3 PUSH1 0x1 PUSH1 0xA0 SHL SWAP1 DIV PUSH1 0xFF AND SWAP2 AND DUP4 JUMP JUMPDEST PUSH1 0x33 SLOAD PUSH1 0x1 PUSH1 0x1 PUSH1 0xA0 SHL SUB AND SWAP1 JUMP JUMPDEST PUSH1 0x98 PUSH1 0x20 MSTORE PUSH1 0x0 SWAP1 DUP2 MSTORE PUSH1 0x40 SWAP1 KECCAK256 SLOAD PUSH1 0x1 PUSH1 0x1 PUSH1 0xA0 SHL SUB DUP2 AND SWAP1 PUSH1 0x1 PUSH1 0xA0 SHL SWAP1 DIV PUSH1 0xFF AND DUP3 JUMP JUMPDEST PUSH2 0x977 PUSH2 0x12C0 JUMP JUMPDEST PUSH1 0x1 PUSH1 0x1 PUSH1 0xA0 SHL SUB AND PUSH2 0x988 PUSH2 0x939 JUMP JUMPDEST PUSH1 0x1 PUSH1 0x1 PUSH1 0xA0 SHL SUB AND EQ PUSH2 0x9D1 JUMPI PUSH1 0x40 DUP1 MLOAD PUSH3 0x461BCD PUSH1 0xE5 SHL DUP2 MSTORE PUSH1 0x20 PUSH1 0x4 DUP3 ADD DUP2 SWAP1 MSTORE PUSH1 0x24 DUP3 ADD MSTORE PUSH1 0x0 DUP1 MLOAD PUSH1 0x20 PUSH2 0x1F13 DUP4 CODECOPY DUP2 MLOAD SWAP2 MSTORE PUSH1 0x44 DUP3 ADD MSTORE SWAP1 MLOAD SWAP1 DUP2 SWAP1 SUB PUSH1 0x64 ADD SWAP1 REVERT JUMPDEST PUSH1 0x2 PUSH1 0x65 SLOAD EQ ISZERO PUSH2 0xA29 JUMPI PUSH1 0x40 DUP1 MLOAD PUSH3 0x461BCD PUSH1 0xE5 SHL DUP2 MSTORE PUSH1 0x20 PUSH1 0x4 DUP3 ADD MSTORE PUSH1 0x1F PUSH1 0x24 DUP3 ADD MSTORE PUSH32 0x5265656E7472616E637947756172643A207265656E7472616E742063616C6C00 PUSH1 0x44 DUP3 ADD MSTORE SWAP1 MLOAD SWAP1 DUP2 SWAP1 SUB PUSH1 0x64 ADD SWAP1 REVERT JUMPDEST PUSH1 0x2 PUSH1 0x65 SSTORE PUSH1 0x0 PUSH2 0xA38 PUSH2 0x1E57 JUMP JUMPDEST PUSH1 0x0 JUMPDEST PUSH1 0x99 SLOAD DUP2 LT ISZERO PUSH2 0x6D8 JUMPI PUSH1 0x97 PUSH1 0x0 PUSH1 0x99 DUP4 DUP2 SLOAD DUP2 LT PUSH2 0xA56 JUMPI INVALID JUMPDEST PUSH1 0x0 SWAP2 DUP3 MSTORE PUSH1 0x20 DUP1 DUP4 KECCAK256 SWAP1 SWAP2 ADD SLOAD PUSH1 0x1 PUSH1 0x1 PUSH1 0xA0 SHL SUB SWAP1 DUP2 AND DUP5 MSTORE DUP4 DUP3 ADD SWAP5 SWAP1 SWAP5 MSTORE PUSH1 0x40 SWAP3 DUP4 ADD SWAP1 SWAP2 KECCAK256 DUP3 MLOAD PUSH1 0x60 DUP2 ADD DUP5 MSTORE DUP2 SLOAD DUP1 DUP7 AND DUP3 MSTORE PUSH1 0xFF PUSH1 0x1 PUSH1 0xA0 SHL SWAP1 SWAP2 DIV AND ISZERO ISZERO SWAP3 DUP2 ADD SWAP3 SWAP1 SWAP3 MSTORE PUSH1 0x1 ADD SLOAD SWAP1 SWAP3 AND SWAP1 DUP3 ADD DUP2 SWAP1 MSTORE SWAP1 SWAP3 POP ISZERO PUSH2 0xCA1 JUMPI DUP2 PUSH1 0x40 ADD MLOAD SWAP3 POP DUP3 PUSH1 0x1 PUSH1 0x1 PUSH1 0xA0 SHL SUB AND PUSH4 0xA400326F DUP4 PUSH1 0x0 ADD MLOAD PUSH1 0x40 MLOAD DUP3 PUSH4 0xFFFFFFFF AND PUSH1 0xE0 SHL DUP2 MSTORE PUSH1 0x4 ADD DUP1 DUP3 PUSH1 0x1 PUSH1 0x1 PUSH1 0xA0 SHL SUB AND DUP2 MSTORE PUSH1 0x20 ADD SWAP2 POP POP PUSH1 0x20 PUSH1 0x40 MLOAD DUP1 DUP4 SUB DUP2 DUP7 DUP1 EXTCODESIZE ISZERO DUP1 ISZERO PUSH2 0xB10 JUMPI PUSH1 0x0 DUP1 REVERT JUMPDEST POP GAS STATICCALL ISZERO DUP1 ISZERO PUSH2 0xB24 JUMPI RETURNDATASIZE PUSH1 0x0 DUP1 RETURNDATACOPY RETURNDATASIZE PUSH1 0x0 REVERT JUMPDEST POP POP POP POP PUSH1 0x40 MLOAD RETURNDATASIZE PUSH1 0x20 DUP2 LT ISZERO PUSH2 0xB3A JUMPI PUSH1 0x0 DUP1 REVERT JUMPDEST POP MLOAD PUSH2 0xB45 JUMPI PUSH1 0x0 DUP1 REVERT JUMPDEST DUP2 MLOAD PUSH1 0x40 DUP1 MLOAD PUSH4 0x70A08231 PUSH1 0xE0 SHL DUP2 MSTORE ADDRESS PUSH1 0x4 DUP3 ADD MSTORE SWAP1 MLOAD PUSH1 0x0 SWAP3 PUSH1 0x1 PUSH1 0x1 PUSH1 0xA0 SHL SUB AND SWAP2 PUSH4 0x70A08231 SWAP2 PUSH1 0x24 DUP1 DUP4 ADD SWAP3 PUSH1 0x20 SWAP3 SWAP2 SWAP1 DUP3 SWAP1 SUB ADD DUP2 DUP7 DUP1 EXTCODESIZE ISZERO DUP1 ISZERO PUSH2 0xB8F JUMPI PUSH1 0x0 DUP1 REVERT JUMPDEST POP GAS STATICCALL ISZERO DUP1 ISZERO PUSH2 0xBA3 JUMPI RETURNDATASIZE PUSH1 0x0 DUP1 RETURNDATACOPY RETURNDATASIZE PUSH1 0x0 REVERT JUMPDEST POP POP POP POP PUSH1 0x40 MLOAD RETURNDATASIZE PUSH1 0x20 DUP2 LT ISZERO PUSH2 0xBB9 JUMPI PUSH1 0x0 DUP1 REVERT JUMPDEST POP MLOAD PUSH1 0x40 DUP5 ADD MLOAD DUP5 MLOAD SWAP2 SWAP3 POP PUSH2 0xBD9 SWAP2 PUSH1 0x1 PUSH1 0x1 PUSH1 0xA0 SHL SUB AND SWAP1 DUP4 PUSH2 0x17D9 JUMP JUMPDEST DUP4 PUSH1 0x1 PUSH1 0x1 PUSH1 0xA0 SHL SUB AND PUSH4 0x47E7EF24 DUP5 PUSH1 0x0 ADD MLOAD DUP4 PUSH1 0x40 MLOAD DUP4 PUSH4 0xFFFFFFFF AND PUSH1 0xE0 SHL DUP2 MSTORE PUSH1 0x4 ADD DUP1 DUP4 PUSH1 0x1 PUSH1 0x1 PUSH1 0xA0 SHL SUB AND DUP2 MSTORE PUSH1 0x20 ADD DUP3 DUP2 MSTORE PUSH1 0x20 ADD SWAP3 POP POP POP PUSH1 0x0 PUSH1 0x40 MLOAD DUP1 DUP4 SUB DUP2 PUSH1 0x0 DUP8 DUP1 EXTCODESIZE ISZERO DUP1 ISZERO PUSH2 0xC34 JUMPI PUSH1 0x0 DUP1 REVERT JUMPDEST POP GAS CALL ISZERO DUP1 ISZERO PUSH2 0xC48 JUMPI RETURNDATASIZE PUSH1 0x0 DUP1 RETURNDATACOPY RETURNDATASIZE PUSH1 0x0 REVERT JUMPDEST POP POP POP POP DUP3 PUSH1 0x40 ADD MLOAD PUSH1 0x1 PUSH1 0x1 PUSH1 0xA0 SHL SUB AND DUP4 PUSH1 0x0 ADD MLOAD PUSH1 0x1 PUSH1 0x1 PUSH1 0xA0 SHL SUB AND PUSH32 0x290D3382F5CB307945388C5A4AB3A9E3695C8706927C11C35EB329620A310961 DUP4 PUSH1 0x40 MLOAD DUP1 DUP3 DUP2 MSTORE PUSH1 0x20 ADD SWAP2 POP POP PUSH1 0x40 MLOAD DUP1 SWAP2 SUB SWAP1 LOG3 POP JUMPDEST PUSH1 0x1 ADD PUSH2 0xA3B JUMP JUMPDEST PUSH1 0x99 DUP2 DUP2 SLOAD DUP2 LT PUSH2 0x79B JUMPI INVALID JUMPDEST PUSH2 0xCBE PUSH2 0x12C0 JUMP JUMPDEST PUSH1 0x1 PUSH1 0x1 PUSH1 0xA0 SHL SUB AND PUSH2 0xCCF PUSH2 0x939 JUMP JUMPDEST PUSH1 0x1 PUSH1 0x1 PUSH1 0xA0 SHL SUB AND EQ PUSH2 0xD18 JUMPI PUSH1 0x40 DUP1 MLOAD PUSH3 0x461BCD PUSH1 0xE5 SHL DUP2 MSTORE PUSH1 0x20 PUSH1 0x4 DUP3 ADD DUP2 SWAP1 MSTORE PUSH1 0x24 DUP3 ADD MSTORE PUSH1 0x0 DUP1 MLOAD PUSH1 0x20 PUSH2 0x1F13 DUP4 CODECOPY DUP2 MLOAD SWAP2 MSTORE PUSH1 0x44 DUP3 ADD MSTORE SWAP1 MLOAD SWAP1 DUP2 SWAP1 SUB PUSH1 0x64 ADD SWAP1 REVERT JUMPDEST PUSH1 0x1 PUSH1 0x1 PUSH1 0xA0 SHL SUB DUP3 AND PUSH1 0x0 SWAP1 DUP2 MSTORE PUSH1 0x97 PUSH1 0x20 MSTORE PUSH1 0x40 SWAP1 KECCAK256 SLOAD PUSH1 0x1 PUSH1 0xA0 SHL SWAP1 DIV PUSH1 0xFF AND ISZERO PUSH2 0xD80 JUMPI PUSH1 0x40 DUP1 MLOAD PUSH3 0x461BCD PUSH1 0xE5 SHL DUP2 MSTORE PUSH1 0x20 PUSH1 0x4 DUP3 ADD MSTORE PUSH1 0x10 PUSH1 0x24 DUP3 ADD MSTORE PUSH16 0x10DBDB1B185D195C985B081859191959 PUSH1 0x82 SHL PUSH1 0x44 DUP3 ADD MSTORE SWAP1 MLOAD SWAP1 DUP2 SWAP1 SUB PUSH1 0x64 ADD SWAP1 REVERT JUMPDEST PUSH1 0x12 DUP3 PUSH1 0x1 PUSH1 0x1 PUSH1 0xA0 SHL SUB AND PUSH4 0x313CE567 PUSH1 0x40 MLOAD DUP2 PUSH4 0xFFFFFFFF AND PUSH1 0xE0 SHL DUP2 MSTORE PUSH1 0x4 ADD PUSH1 0x20 PUSH1 0x40 MLOAD DUP1 DUP4 SUB DUP2 DUP7 DUP1 EXTCODESIZE ISZERO DUP1 ISZERO PUSH2 0xDBB JUMPI PUSH1 0x0 DUP1 REVERT JUMPDEST POP GAS STATICCALL ISZERO DUP1 ISZERO PUSH2 0xDCF JUMPI RETURNDATASIZE PUSH1 0x0 DUP1 RETURNDATACOPY RETURNDATASIZE PUSH1 0x0 REVERT JUMPDEST POP POP POP POP PUSH1 0x40 MLOAD RETURNDATASIZE PUSH1 0x20 DUP2 LT ISZERO PUSH2 0xDE5 JUMPI PUSH1 0x0 DUP1 REVERT JUMPDEST POP MLOAD PUSH1 0xFF AND GT ISZERO PUSH2 0xE27 JUMPI PUSH1 0x40 MLOAD PUSH3 0x461BCD PUSH1 0xE5 SHL DUP2 MSTORE PUSH1 0x4 ADD DUP1 DUP1 PUSH1 0x20 ADD DUP3 DUP2 SUB DUP3 MSTORE PUSH1 0x2C DUP2 MSTORE PUSH1 0x20 ADD DUP1 PUSH2 0x1F33 PUSH1 0x2C SWAP2 CODECOPY PUSH1 0x40 ADD SWAP2 POP POP PUSH1 0x40 MLOAD DUP1 SWAP2 SUB SWAP1 REVERT JUMPDEST PUSH1 0x1 PUSH1 0x1 PUSH1 0xA0 SHL SUB DUP1 DUP4 AND PUSH1 0x0 DUP2 DUP2 MSTORE PUSH1 0x97 PUSH1 0x20 SWAP1 DUP2 MSTORE PUSH1 0x40 DUP1 DUP4 KECCAK256 DUP1 SLOAD PUSH1 0xFF PUSH1 0xA0 SHL NOT PUSH1 0x1 PUSH1 0x1 PUSH1 0xA0 SHL SUB NOT SWAP2 DUP3 AND DUP8 OR AND PUSH1 0x1 PUSH1 0xA0 SHL SWAP1 DUP2 OR DUP1 DUP5 SSTORE PUSH1 0x1 DUP1 DUP6 ADD DUP1 SLOAD DUP13 DUP13 AND SWAP1 DUP7 AND DUP2 OR SWAP1 SWAP2 SSTORE PUSH1 0x99 DUP1 SLOAD SWAP3 DUP4 ADD DUP2 SSTORE SWAP1 SWAP9 MSTORE PUSH32 0x72A152DDFB8E864297C917AF52EA6C1C68AEAD0FEE1A62673FCC7E0C94979D00 ADD DUP1 SLOAD SWAP1 SWAP4 AND SWAP9 AND SWAP8 SWAP1 SWAP8 OR SWAP1 SSTORE DUP1 SLOAD DUP3 MLOAD SWAP6 DUP7 MSTORE SWAP6 SWAP1 SWAP6 DIV PUSH1 0xFF AND ISZERO ISZERO SWAP2 DUP5 ADD SWAP2 SWAP1 SWAP2 MSTORE DUP3 DUP2 ADD SWAP2 SWAP1 SWAP2 MSTORE MLOAD PUSH32 0x1FB89240E26EFAF4D05F8F118B830B58A8B4843CEEFB4C360C2673FBF0189D60 SWAP2 DUP2 SWAP1 SUB PUSH1 0x60 ADD SWAP1 LOG1 POP POP POP JUMP JUMPDEST PUSH1 0x0 PUSH2 0xF1B PUSH2 0xF0D PUSH2 0x2B8 JUMP JUMPDEST PUSH2 0xF15 PUSH2 0x7B5 JUMP JUMPDEST SWAP1 PUSH2 0x125D JUMP JUMPDEST SWAP1 POP SWAP1 JUMP JUMPDEST PUSH2 0xF28 PUSH2 0x12C0 JUMP JUMPDEST PUSH1 0x1 PUSH1 0x1 PUSH1 0xA0 SHL SUB AND PUSH2 0xF39 PUSH2 0x939 JUMP JUMPDEST PUSH1 0x1 PUSH1 0x1 PUSH1 0xA0 SHL SUB AND EQ PUSH2 0xF82 JUMPI PUSH1 0x40 DUP1 MLOAD PUSH3 0x461BCD PUSH1 0xE5 SHL DUP2 MSTORE PUSH1 0x20 PUSH1 0x4 DUP3 ADD DUP2 SWAP1 MSTORE PUSH1 0x24 DUP3 ADD MSTORE PUSH1 0x0 DUP1 MLOAD PUSH1 0x20 PUSH2 0x1F13 DUP4 CODECOPY DUP2 MLOAD SWAP2 MSTORE PUSH1 0x44 DUP3 ADD MSTORE SWAP1 MLOAD SWAP1 DUP2 SWAP1 SUB PUSH1 0x64 ADD SWAP1 REVERT JUMPDEST PUSH1 0x1 PUSH1 0x1 PUSH1 0xA0 SHL SUB DUP2 AND PUSH2 0xFC7 JUMPI PUSH1 0x40 MLOAD PUSH3 0x461BCD PUSH1 0xE5 SHL DUP2 MSTORE PUSH1 0x4 ADD DUP1 DUP1 PUSH1 0x20 ADD DUP3 DUP2 SUB DUP3 MSTORE PUSH1 0x26 DUP2 MSTORE PUSH1 0x20 ADD DUP1 PUSH2 0x1E78 PUSH1 0x26 SWAP2 CODECOPY PUSH1 0x40 ADD SWAP2 POP POP PUSH1 0x40 MLOAD DUP1 SWAP2 SUB SWAP1 REVERT JUMPDEST PUSH1 0x33 SLOAD PUSH1 0x40 MLOAD PUSH1 0x1 PUSH1 0x1 PUSH1 0xA0 SHL SUB DUP1 DUP5 AND SWAP3 AND SWAP1 PUSH32 0x8BE0079C531659141344CD1FD0A4F28419497F9722A3DAAFE3B4186F6B6457E0 SWAP1 PUSH1 0x0 SWAP1 LOG3 PUSH1 0x33 DUP1 SLOAD PUSH1 0x1 PUSH1 0x1 PUSH1 0xA0 SHL SUB NOT AND PUSH1 0x1 PUSH1 0x1 PUSH1 0xA0 SHL SUB SWAP3 SWAP1 SWAP3 AND SWAP2 SWAP1 SWAP2 OR SWAP1 SSTORE JUMP JUMPDEST PUSH1 0x0 PUSH2 0x102D PUSH2 0x1E57 JUMP JUMPDEST POP PUSH1 0x1 PUSH1 0x1 PUSH1 0xA0 SHL SUB DUP3 DUP2 AND PUSH1 0x0 SWAP1 DUP2 MSTORE PUSH1 0x97 PUSH1 0x20 SWAP1 DUP2 MSTORE PUSH1 0x40 SWAP2 DUP3 SWAP1 KECCAK256 DUP3 MLOAD PUSH1 0x60 DUP2 ADD DUP5 MSTORE DUP2 SLOAD DUP1 DUP7 AND DUP3 MSTORE PUSH1 0x1 PUSH1 0xA0 SHL SWAP1 DIV PUSH1 0xFF AND ISZERO ISZERO SWAP3 DUP2 ADD SWAP3 SWAP1 SWAP3 MSTORE PUSH1 0x1 ADD SLOAD SWAP1 SWAP3 AND SWAP1 DUP3 ADD DUP2 SWAP1 MSTORE PUSH2 0x1088 JUMPI PUSH1 0x0 SWAP2 POP POP PUSH2 0x1258 JUMP JUMPDEST PUSH1 0x0 DUP2 PUSH1 0x40 ADD MLOAD SWAP1 POP DUP1 PUSH1 0x1 PUSH1 0x1 PUSH1 0xA0 SHL SUB AND PUSH4 0xA400326F DUP4 PUSH1 0x0 ADD MLOAD PUSH1 0x40 MLOAD DUP3 PUSH4 0xFFFFFFFF AND PUSH1 0xE0 SHL DUP2 MSTORE PUSH1 0x4 ADD DUP1 DUP3 PUSH1 0x1 PUSH1 0x1 PUSH1 0xA0 SHL SUB AND DUP2 MSTORE PUSH1 0x20 ADD SWAP2 POP POP PUSH1 0x20 PUSH1 0x40 MLOAD DUP1 DUP4 SUB DUP2 DUP7 DUP1 EXTCODESIZE ISZERO DUP1 ISZERO PUSH2 0x10E2 JUMPI PUSH1 0x0 DUP1 REVERT JUMPDEST POP GAS STATICCALL ISZERO DUP1 ISZERO PUSH2 0x10F6 JUMPI RETURNDATASIZE PUSH1 0x0 DUP1 RETURNDATACOPY RETURNDATASIZE PUSH1 0x0 REVERT JUMPDEST POP POP POP POP PUSH1 0x40 MLOAD RETURNDATASIZE PUSH1 0x20 DUP2 LT ISZERO PUSH2 0x110C JUMPI PUSH1 0x0 DUP1 REVERT JUMPDEST POP MLOAD PUSH2 0x111D JUMPI PUSH1 0x0 SWAP3 POP POP POP PUSH2 0x1258 JUMP JUMPDEST PUSH1 0x0 PUSH4 0x5F5E100 SWAP1 POP PUSH1 0x0 PUSH4 0x5F5E100 SWAP1 POP PUSH1 0x0 DUP5 PUSH1 0x0 ADD MLOAD PUSH1 0x1 PUSH1 0x1 PUSH1 0xA0 SHL SUB AND PUSH4 0x313CE567 PUSH1 0x40 MLOAD DUP2 PUSH4 0xFFFFFFFF AND PUSH1 0xE0 SHL DUP2 MSTORE PUSH1 0x4 ADD PUSH1 0x20 PUSH1 0x40 MLOAD DUP1 DUP4 SUB DUP2 DUP7 DUP1 EXTCODESIZE ISZERO DUP1 ISZERO PUSH2 0x116E JUMPI PUSH1 0x0 DUP1 REVERT JUMPDEST POP GAS STATICCALL ISZERO DUP1 ISZERO PUSH2 0x1182 JUMPI RETURNDATASIZE PUSH1 0x0 DUP1 RETURNDATACOPY RETURNDATASIZE PUSH1 0x0 REVERT JUMPDEST POP POP POP POP PUSH1 0x40 MLOAD RETURNDATASIZE PUSH1 0x20 DUP2 LT ISZERO PUSH2 0x1198 JUMPI PUSH1 0x0 DUP1 REVERT JUMPDEST POP MLOAD DUP6 MLOAD PUSH1 0x40 DUP1 MLOAD PUSH4 0x2FA8A913 PUSH1 0xE1 SHL DUP2 MSTORE PUSH1 0x1 PUSH1 0x1 PUSH1 0xA0 SHL SUB SWAP3 DUP4 AND PUSH1 0x4 DUP3 ADD MSTORE SWAP1 MLOAD PUSH1 0xFF SWAP1 SWAP4 AND SWAP4 POP PUSH1 0x0 SWAP3 PUSH2 0x1232 SWAP3 DUP7 SWAP3 PUSH2 0x122C SWAP3 DUP10 SWAP3 DUP12 AND SWAP2 PUSH4 0x5F515226 SWAP2 PUSH1 0x24 DUP1 DUP4 ADD SWAP3 PUSH1 0x20 SWAP3 SWAP2 SWAP1 DUP3 SWAP1 SUB ADD DUP2 DUP7 DUP1 EXTCODESIZE ISZERO DUP1 ISZERO PUSH2 0x11FA JUMPI PUSH1 0x0 DUP1 REVERT JUMPDEST POP GAS STATICCALL ISZERO DUP1 ISZERO PUSH2 0x120E JUMPI RETURNDATASIZE PUSH1 0x0 DUP1 RETURNDATACOPY RETURNDATASIZE PUSH1 0x0 REVERT JUMPDEST POP POP POP POP PUSH1 0x40 MLOAD RETURNDATASIZE PUSH1 0x20 DUP2 LT ISZERO PUSH2 0x1224 JUMPI PUSH1 0x0 DUP1 REVERT JUMPDEST POP MLOAD SWAP1 PUSH2 0x182B JUMP JUMPDEST SWAP1 PUSH2 0x1884 JUMP JUMPDEST SWAP1 POP PUSH1 0x0 PUSH2 0x124E PUSH2 0x1244 PUSH1 0x12 DUP6 PUSH2 0x18EB JUMP JUMPDEST DUP4 SWAP1 PUSH1 0xA EXP PUSH2 0x182B JUMP JUMPDEST SWAP8 POP POP POP POP POP POP POP POP JUMPDEST SWAP2 SWAP1 POP JUMP JUMPDEST PUSH1 0x0 DUP3 DUP3 ADD DUP4 DUP2 LT ISZERO PUSH2 0x12B7 JUMPI PUSH1 0x40 DUP1 MLOAD PUSH3 0x461BCD PUSH1 0xE5 SHL DUP2 MSTORE PUSH1 0x20 PUSH1 0x4 DUP3 ADD MSTORE PUSH1 0x1B PUSH1 0x24 DUP3 ADD MSTORE PUSH32 0x536166654D6174683A206164646974696F6E206F766572666C6F770000000000 PUSH1 0x44 DUP3 ADD MSTORE SWAP1 MLOAD SWAP1 DUP2 SWAP1 SUB PUSH1 0x64 ADD SWAP1 REVERT JUMPDEST SWAP1 POP JUMPDEST SWAP3 SWAP2 POP POP JUMP JUMPDEST CALLER SWAP1 JUMP JUMPDEST PUSH2 0x12CC PUSH2 0x1E57 JUMP JUMPDEST POP PUSH1 0x1 PUSH1 0x1 PUSH1 0xA0 SHL SUB DUP2 DUP2 AND PUSH1 0x0 DUP2 DUP2 MSTORE PUSH1 0x97 PUSH1 0x20 SWAP1 DUP2 MSTORE PUSH1 0x40 DUP1 DUP4 KECCAK256 DUP2 MLOAD PUSH1 0x60 DUP2 ADD DUP4 MSTORE DUP2 SLOAD DUP1 DUP9 AND DUP3 MSTORE PUSH1 0x1 PUSH1 0xA0 SHL SWAP1 DIV PUSH1 0xFF AND ISZERO ISZERO DUP2 DUP6 ADD MSTORE PUSH1 0x1 SWAP1 SWAP2 ADD SLOAD DUP7 AND DUP2 DUP4 ADD MSTORE DUP2 MLOAD PUSH4 0x8D2C8727 PUSH1 0xE0 SHL DUP2 MSTORE PUSH1 0x4 DUP2 ADD SWAP6 SWAP1 SWAP6 MSTORE SWAP1 MLOAD SWAP1 SWAP5 SWAP3 SWAP4 SWAP3 DUP8 AND SWAP3 PUSH4 0x8D2C8727 SWAP3 PUSH1 0x24 DUP1 DUP4 ADD SWAP4 SWAP2 SWAP3 DUP3 SWAP1 SUB ADD DUP2 DUP7 DUP1 EXTCODESIZE ISZERO DUP1 ISZERO PUSH2 0x1354 JUMPI PUSH1 0x0 DUP1 REVERT JUMPDEST POP GAS STATICCALL ISZERO DUP1 ISZERO PUSH2 0x1368 JUMPI RETURNDATASIZE PUSH1 0x0 DUP1 RETURNDATACOPY RETURNDATASIZE PUSH1 0x0 REVERT JUMPDEST POP POP POP POP PUSH1 0x40 MLOAD RETURNDATASIZE PUSH1 0x20 DUP2 LT ISZERO PUSH2 0x137E JUMPI PUSH1 0x0 DUP1 REVERT JUMPDEST POP MLOAD SWAP1 POP DUP1 ISZERO PUSH2 0x140A JUMPI DUP2 MLOAD PUSH1 0x40 DUP1 MLOAD PUSH4 0x69AD7489 PUSH1 0xE0 SHL DUP2 MSTORE ADDRESS PUSH1 0x4 DUP3 ADD MSTORE PUSH1 0x1 PUSH1 0x1 PUSH1 0xA0 SHL SUB SWAP3 DUP4 AND PUSH1 0x24 DUP3 ADD MSTORE DUP2 MLOAD PUSH1 0x0 SWAP4 DUP5 SWAP4 SWAP1 DUP10 AND SWAP3 PUSH4 0x69AD7489 SWAP3 PUSH1 0x44 DUP1 DUP4 ADD SWAP4 SWAP3 DUP3 SWAP1 SUB ADD DUP2 DUP8 DUP8 DUP1 EXTCODESIZE ISZERO DUP1 ISZERO PUSH2 0x13DB JUMPI PUSH1 0x0 DUP1 REVERT JUMPDEST POP GAS CALL ISZERO DUP1 ISZERO PUSH2 0x13EF JUMPI RETURNDATASIZE PUSH1 0x0 DUP1 RETURNDATACOPY RETURNDATASIZE PUSH1 0x0 REVERT JUMPDEST POP POP POP POP PUSH1 0x40 MLOAD RETURNDATASIZE PUSH1 0x40 DUP2 LT ISZERO PUSH2 0x1405 JUMPI PUSH1 0x0 DUP1 REVERT JUMPDEST POP POP POP POP JUMPDEST POP POP POP POP JUMP JUMPDEST PUSH1 0x0 DUP2 PUSH1 0x1 PUSH1 0x1 PUSH1 0xA0 SHL SUB AND PUSH4 0x125F9E33 PUSH1 0x40 MLOAD DUP2 PUSH4 0xFFFFFFFF AND PUSH1 0xE0 SHL DUP2 MSTORE PUSH1 0x4 ADD PUSH1 0x20 PUSH1 0x40 MLOAD DUP1 DUP4 SUB DUP2 DUP7 DUP1 EXTCODESIZE ISZERO DUP1 ISZERO PUSH2 0x144B JUMPI PUSH1 0x0 DUP1 REVERT JUMPDEST POP GAS STATICCALL ISZERO DUP1 ISZERO PUSH2 0x145F JUMPI RETURNDATASIZE PUSH1 0x0 DUP1 RETURNDATACOPY RETURNDATASIZE PUSH1 0x0 REVERT JUMPDEST POP POP POP POP PUSH1 0x40 MLOAD RETURNDATASIZE PUSH1 0x20 DUP2 LT ISZERO PUSH2 0x1475 JUMPI PUSH1 0x0 DUP1 REVERT JUMPDEST POP MLOAD PUSH1 0x40 DUP1 MLOAD PUSH4 0x1D4814C1 PUSH1 0xE2 SHL DUP2 MSTORE SWAP1 MLOAD SWAP2 SWAP3 POP PUSH1 0x0 SWAP2 PUSH1 0x1 PUSH1 0x1 PUSH1 0xA0 SHL SUB DUP6 AND SWAP2 PUSH4 0x75205304 SWAP2 PUSH1 0x4 DUP1 DUP4 ADD SWAP3 PUSH1 0x20 SWAP3 SWAP2 SWAP1 DUP3 SWAP1 SUB ADD DUP2 DUP7 DUP1 EXTCODESIZE ISZERO DUP1 ISZERO PUSH2 0x14BD JUMPI PUSH1 0x0 DUP1 REVERT JUMPDEST POP GAS STATICCALL ISZERO DUP1 ISZERO PUSH2 0x14D1 JUMPI RETURNDATASIZE PUSH1 0x0 DUP1 RETURNDATACOPY RETURNDATASIZE PUSH1 0x0 REVERT JUMPDEST POP POP POP POP PUSH1 0x40 MLOAD RETURNDATASIZE PUSH1 0x20 DUP2 LT ISZERO PUSH2 0x14E7 JUMPI PUSH1 0x0 DUP1 REVERT JUMPDEST POP MLOAD SWAP1 POP DUP1 ISZERO PUSH2 0x155C JUMPI PUSH1 0x0 DUP4 PUSH1 0x1 PUSH1 0x1 PUSH1 0xA0 SHL SUB AND PUSH4 0x242241D PUSH1 0x40 MLOAD DUP2 PUSH4 0xFFFFFFFF AND PUSH1 0xE0 SHL DUP2 MSTORE PUSH1 0x4 ADD PUSH1 0x20 PUSH1 0x40 MLOAD DUP1 DUP4 SUB DUP2 PUSH1 0x0 DUP8 DUP1 EXTCODESIZE ISZERO DUP1 ISZERO PUSH2 0x152E JUMPI PUSH1 0x0 DUP1 REVERT JUMPDEST POP GAS CALL ISZERO DUP1 ISZERO PUSH2 0x1542 JUMPI RETURNDATASIZE PUSH1 0x0 DUP1 RETURNDATACOPY RETURNDATASIZE PUSH1 0x0 REVERT JUMPDEST POP POP POP POP PUSH1 0x40 MLOAD RETURNDATASIZE PUSH1 0x20 DUP2 LT ISZERO PUSH2 0x1558 JUMPI PUSH1 0x0 DUP1 REVERT JUMPDEST POP POP POP JUMPDEST POP POP POP JUMP JUMPDEST PUSH1 0x0 PUSH2 0x156B PUSH2 0x1E57 JUMP JUMPDEST POP PUSH1 0x1 PUSH1 0x1 PUSH1 0xA0 SHL SUB DUP3 DUP2 AND PUSH1 0x0 SWAP1 DUP2 MSTORE PUSH1 0x97 PUSH1 0x20 SWAP1 DUP2 MSTORE PUSH1 0x40 DUP1 DUP4 KECCAK256 DUP2 MLOAD PUSH1 0x60 DUP2 ADD DUP4 MSTORE DUP2 SLOAD DUP1 DUP8 AND DUP1 DUP4 MSTORE PUSH1 0x1 PUSH1 0xA0 SHL SWAP1 SWAP2 DIV PUSH1 0xFF AND ISZERO ISZERO DUP3 DUP7 ADD MSTORE PUSH1 0x1 SWAP1 SWAP3 ADD SLOAD SWAP1 SWAP6 AND DUP6 DUP4 ADD MSTORE DUP2 MLOAD PUSH4 0x313CE567 PUSH1 0xE0 SHL DUP2 MSTORE SWAP2 MLOAD PUSH4 0x5F5E100 SWAP5 DUP6 SWAP5 SWAP1 SWAP4 PUSH4 0x313CE567 SWAP3 PUSH1 0x4 DUP1 DUP4 ADD SWAP4 SWAP3 DUP3 SWAP1 SUB ADD DUP2 DUP7 DUP1 EXTCODESIZE ISZERO DUP1 ISZERO PUSH2 0x15EF JUMPI PUSH1 0x0 DUP1 REVERT JUMPDEST POP GAS STATICCALL ISZERO DUP1 ISZERO PUSH2 0x1603 JUMPI RETURNDATASIZE PUSH1 0x0 DUP1 RETURNDATACOPY RETURNDATASIZE PUSH1 0x0 REVERT JUMPDEST POP POP POP POP PUSH1 0x40 MLOAD RETURNDATASIZE PUSH1 0x20 DUP2 LT ISZERO PUSH2 0x1619 JUMPI PUSH1 0x0 DUP1 REVERT JUMPDEST POP MLOAD DUP5 MLOAD PUSH1 0x40 DUP1 MLOAD PUSH4 0x70A08231 PUSH1 0xE0 SHL DUP2 MSTORE ADDRESS PUSH1 0x4 DUP3 ADD MSTORE SWAP1 MLOAD PUSH1 0xFF SWAP1 SWAP4 AND SWAP4 POP PUSH1 0x0 SWAP3 PUSH2 0x1678 SWAP3 DUP7 SWAP3 PUSH2 0x122C SWAP3 DUP10 SWAP3 PUSH1 0x1 PUSH1 0x1 PUSH1 0xA0 SHL SUB AND SWAP2 PUSH4 0x70A08231 SWAP2 PUSH1 0x24 DUP1 DUP4 ADD SWAP3 PUSH1 0x20 SWAP3 SWAP2 SWAP1 DUP3 SWAP1 SUB ADD DUP2 DUP7 DUP1 EXTCODESIZE ISZERO DUP1 ISZERO PUSH2 0x11FA JUMPI PUSH1 0x0 DUP1 REVERT JUMPDEST SWAP1 POP PUSH1 0x0 PUSH2 0x168A PUSH2 0x1244 PUSH1 0x12 DUP6 PUSH2 0x18EB JUMP JUMPDEST SWAP9 SWAP8 POP POP POP POP POP POP POP POP JUMP JUMPDEST PUSH1 0x0 PUSH2 0x16A1 ADDRESS PUSH2 0x1948 JUMP JUMPDEST ISZERO SWAP1 POP SWAP1 JUMP JUMPDEST PUSH1 0x0 SLOAD PUSH2 0x100 SWAP1 DIV PUSH1 0xFF AND DUP1 PUSH2 0x16C0 JUMPI POP PUSH2 0x16C0 PUSH2 0x1696 JUMP JUMPDEST DUP1 PUSH2 0x16CE JUMPI POP PUSH1 0x0 SLOAD PUSH1 0xFF AND ISZERO JUMPDEST PUSH2 0x1709 JUMPI PUSH1 0x40 MLOAD PUSH3 0x461BCD PUSH1 0xE5 SHL DUP2 MSTORE PUSH1 0x4 ADD DUP1 DUP1 PUSH1 0x20 ADD DUP3 DUP2 SUB DUP3 MSTORE PUSH1 0x2E DUP2 MSTORE PUSH1 0x20 ADD DUP1 PUSH2 0x1EC4 PUSH1 0x2E SWAP2 CODECOPY PUSH1 0x40 ADD SWAP2 POP POP PUSH1 0x40 MLOAD DUP1 SWAP2 SUB SWAP1 REVERT JUMPDEST PUSH1 0x0 SLOAD PUSH2 0x100 SWAP1 DIV PUSH1 0xFF AND ISZERO DUP1 ISZERO PUSH2 0x1734 JUMPI PUSH1 0x0 DUP1 SLOAD PUSH1 0xFF NOT PUSH2 0xFF00 NOT SWAP1 SWAP2 AND PUSH2 0x100 OR AND PUSH1 0x1 OR SWAP1 SSTORE JUMPDEST PUSH2 0x173C PUSH2 0x194E JUMP JUMPDEST PUSH2 0x8F3 PUSH2 0x19EE JUMP JUMPDEST PUSH1 0x0 SLOAD PUSH2 0x100 SWAP1 DIV PUSH1 0xFF AND DUP1 PUSH2 0x175D JUMPI POP PUSH2 0x175D PUSH2 0x1696 JUMP JUMPDEST DUP1 PUSH2 0x176B JUMPI POP PUSH1 0x0 SLOAD PUSH1 0xFF AND ISZERO JUMPDEST PUSH2 0x17A6 JUMPI PUSH1 0x40 MLOAD PUSH3 0x461BCD PUSH1 0xE5 SHL DUP2 MSTORE PUSH1 0x4 ADD DUP1 DUP1 PUSH1 0x20 ADD DUP3 DUP2 SUB DUP3 MSTORE PUSH1 0x2E DUP2 MSTORE PUSH1 0x20 ADD DUP1 PUSH2 0x1EC4 PUSH1 0x2E SWAP2 CODECOPY PUSH1 0x40 ADD SWAP2 POP POP PUSH1 0x40 MLOAD DUP1 SWAP2 SUB SWAP1 REVERT JUMPDEST PUSH1 0x0 SLOAD PUSH2 0x100 SWAP1 DIV PUSH1 0xFF AND ISZERO DUP1 ISZERO PUSH2 0x17D1 JUMPI PUSH1 0x0 DUP1 SLOAD PUSH1 0xFF NOT PUSH2 0xFF00 NOT SWAP1 SWAP2 AND PUSH2 0x100 OR AND PUSH1 0x1 OR SWAP1 SSTORE JUMPDEST PUSH2 0x8F3 PUSH2 0x1AE7 JUMP JUMPDEST PUSH1 0x40 DUP1 MLOAD PUSH1 0x1 PUSH1 0x1 PUSH1 0xA0 SHL SUB DUP5 AND PUSH1 0x24 DUP3 ADD MSTORE PUSH1 0x44 DUP1 DUP3 ADD DUP5 SWAP1 MSTORE DUP3 MLOAD DUP1 DUP4 SUB SWAP1 SWAP2 ADD DUP2 MSTORE PUSH1 0x64 SWAP1 SWAP2 ADD SWAP1 SWAP2 MSTORE PUSH1 0x20 DUP2 ADD DUP1 MLOAD PUSH1 0x1 PUSH1 0x1 PUSH1 0xE0 SHL SUB AND PUSH4 0xA9059CBB PUSH1 0xE0 SHL OR SWAP1 MSTORE PUSH2 0x155C SWAP1 DUP5 SWAP1 PUSH2 0x1B8D JUMP JUMPDEST PUSH1 0x0 DUP3 PUSH2 0x183A JUMPI POP PUSH1 0x0 PUSH2 0x12BA JUMP JUMPDEST DUP3 DUP3 MUL DUP3 DUP5 DUP3 DUP2 PUSH2 0x1847 JUMPI INVALID JUMPDEST DIV EQ PUSH2 0x12B7 JUMPI PUSH1 0x40 MLOAD PUSH3 0x461BCD PUSH1 0xE5 SHL DUP2 MSTORE PUSH1 0x4 ADD DUP1 DUP1 PUSH1 0x20 ADD DUP3 DUP2 SUB DUP3 MSTORE PUSH1 0x21 DUP2 MSTORE PUSH1 0x20 ADD DUP1 PUSH2 0x1EF2 PUSH1 0x21 SWAP2 CODECOPY PUSH1 0x40 ADD SWAP2 POP POP PUSH1 0x40 MLOAD DUP1 SWAP2 SUB SWAP1 REVERT JUMPDEST PUSH1 0x0 DUP1 DUP3 GT PUSH2 0x18DA JUMPI PUSH1 0x40 DUP1 MLOAD PUSH3 0x461BCD PUSH1 0xE5 SHL DUP2 MSTORE PUSH1 0x20 PUSH1 0x4 DUP3 ADD MSTORE PUSH1 0x1A PUSH1 0x24 DUP3 ADD MSTORE PUSH32 0x536166654D6174683A206469766973696F6E206279207A65726F000000000000 PUSH1 0x44 DUP3 ADD MSTORE SWAP1 MLOAD SWAP1 DUP2 SWAP1 SUB PUSH1 0x64 ADD SWAP1 REVERT JUMPDEST DUP2 DUP4 DUP2 PUSH2 0x18E3 JUMPI INVALID JUMPDEST DIV SWAP4 SWAP3 POP POP POP JUMP JUMPDEST PUSH1 0x0 DUP3 DUP3 GT ISZERO PUSH2 0x1942 JUMPI PUSH1 0x40 DUP1 MLOAD PUSH3 0x461BCD PUSH1 0xE5 SHL DUP2 MSTORE PUSH1 0x20 PUSH1 0x4 DUP3 ADD MSTORE PUSH1 0x1E PUSH1 0x24 DUP3 ADD MSTORE PUSH32 0x536166654D6174683A207375627472616374696F6E206F766572666C6F770000 PUSH1 0x44 DUP3 ADD MSTORE SWAP1 MLOAD SWAP1 DUP2 SWAP1 SUB PUSH1 0x64 ADD SWAP1 REVERT JUMPDEST POP SWAP1 SUB SWAP1 JUMP JUMPDEST EXTCODESIZE ISZERO ISZERO SWAP1 JUMP JUMPDEST PUSH1 0x0 SLOAD PUSH2 0x100 SWAP1 DIV PUSH1 0xFF AND DUP1 PUSH2 0x1967 JUMPI POP PUSH2 0x1967 PUSH2 0x1696 JUMP JUMPDEST DUP1 PUSH2 0x1975 JUMPI POP PUSH1 0x0 SLOAD PUSH1 0xFF AND ISZERO JUMPDEST PUSH2 0x19B0 JUMPI PUSH1 0x40 MLOAD PUSH3 0x461BCD PUSH1 0xE5 SHL DUP2 MSTORE PUSH1 0x4 ADD DUP1 DUP1 PUSH1 0x20 ADD DUP3 DUP2 SUB DUP3 MSTORE PUSH1 0x2E DUP2 MSTORE PUSH1 0x20 ADD DUP1 PUSH2 0x1EC4 PUSH1 0x2E SWAP2 CODECOPY PUSH1 0x40 ADD SWAP2 POP POP PUSH1 0x40 MLOAD DUP1 SWAP2 SUB SWAP1 REVERT JUMPDEST PUSH1 0x0 SLOAD PUSH2 0x100 SWAP1 DIV PUSH1 0xFF AND ISZERO DUP1 ISZERO PUSH2 0x8F3 JUMPI PUSH1 0x0 DUP1 SLOAD PUSH1 0xFF NOT PUSH2 0xFF00 NOT SWAP1 SWAP2 AND PUSH2 0x100 OR AND PUSH1 0x1 OR SWAP1 SSTORE DUP1 ISZERO PUSH2 0x905 JUMPI PUSH1 0x0 DUP1 SLOAD PUSH2 0xFF00 NOT AND SWAP1 SSTORE POP JUMP JUMPDEST PUSH1 0x0 SLOAD PUSH2 0x100 SWAP1 DIV PUSH1 0xFF AND DUP1 PUSH2 0x1A07 JUMPI POP PUSH2 0x1A07 PUSH2 0x1696 JUMP JUMPDEST DUP1 PUSH2 0x1A15 JUMPI POP PUSH1 0x0 SLOAD PUSH1 0xFF AND ISZERO JUMPDEST PUSH2 0x1A50 JUMPI PUSH1 0x40 MLOAD PUSH3 0x461BCD PUSH1 0xE5 SHL DUP2 MSTORE PUSH1 0x4 ADD DUP1 DUP1 PUSH1 0x20 ADD DUP3 DUP2 SUB DUP3 MSTORE PUSH1 0x2E DUP2 MSTORE PUSH1 0x20 ADD DUP1 PUSH2 0x1EC4 PUSH1 0x2E SWAP2 CODECOPY PUSH1 0x40 ADD SWAP2 POP POP PUSH1 0x40 MLOAD DUP1 SWAP2 SUB SWAP1 REVERT JUMPDEST PUSH1 0x0 SLOAD PUSH2 0x100 SWAP1 DIV PUSH1 0xFF AND ISZERO DUP1 ISZERO PUSH2 0x1A7B JUMPI PUSH1 0x0 DUP1 SLOAD PUSH1 0xFF NOT PUSH2 0xFF00 NOT SWAP1 SWAP2 AND PUSH2 0x100 OR AND PUSH1 0x1 OR SWAP1 SSTORE JUMPDEST PUSH1 0x0 PUSH2 0x1A85 PUSH2 0x12C0 JUMP JUMPDEST PUSH1 0x33 DUP1 SLOAD PUSH1 0x1 PUSH1 0x1 PUSH1 0xA0 SHL SUB NOT AND PUSH1 0x1 PUSH1 0x1 PUSH1 0xA0 SHL SUB DUP4 AND SWAP1 DUP2 OR SWAP1 SWAP2 SSTORE PUSH1 0x40 MLOAD SWAP2 SWAP3 POP SWAP1 PUSH1 0x0 SWAP1 PUSH32 0x8BE0079C531659141344CD1FD0A4F28419497F9722A3DAAFE3B4186F6B6457E0 SWAP1 DUP3 SWAP1 LOG3 POP DUP1 ISZERO PUSH2 0x905 JUMPI PUSH1 0x0 DUP1 SLOAD PUSH2 0xFF00 NOT AND SWAP1 SSTORE POP JUMP JUMPDEST PUSH1 0x0 SLOAD PUSH2 0x100 SWAP1 DIV PUSH1 0xFF AND DUP1 PUSH2 0x1B00 JUMPI POP PUSH2 0x1B00 PUSH2 0x1696 JUMP JUMPDEST DUP1 PUSH2 0x1B0E JUMPI POP PUSH1 0x0 SLOAD PUSH1 0xFF AND ISZERO JUMPDEST PUSH2 0x1B49 JUMPI PUSH1 0x40 MLOAD PUSH3 0x461BCD PUSH1 0xE5 SHL DUP2 MSTORE PUSH1 0x4 ADD DUP1 DUP1 PUSH1 0x20 ADD DUP3 DUP2 SUB DUP3 MSTORE PUSH1 0x2E DUP2 MSTORE PUSH1 0x20 ADD DUP1 PUSH2 0x1EC4 PUSH1 0x2E SWAP2 CODECOPY PUSH1 0x40 ADD SWAP2 POP POP PUSH1 0x40 MLOAD DUP1 SWAP2 SUB SWAP1 REVERT JUMPDEST PUSH1 0x0 SLOAD PUSH2 0x100 SWAP1 DIV PUSH1 0xFF AND ISZERO DUP1 ISZERO PUSH2 0x1B74 JUMPI PUSH1 0x0 DUP1 SLOAD PUSH1 0xFF NOT PUSH2 0xFF00 NOT SWAP1 SWAP2 AND PUSH2 0x100 OR AND PUSH1 0x1 OR SWAP1 SSTORE JUMPDEST PUSH1 0x1 PUSH1 0x65 SSTORE DUP1 ISZERO PUSH2 0x905 JUMPI PUSH1 0x0 DUP1 SLOAD PUSH2 0xFF00 NOT AND SWAP1 SSTORE POP JUMP JUMPDEST PUSH1 0x60 PUSH2 0x1BE2 DUP3 PUSH1 0x40 MLOAD DUP1 PUSH1 0x40 ADD PUSH1 0x40 MSTORE DUP1 PUSH1 0x20 DUP2 MSTORE PUSH1 0x20 ADD PUSH32 0x5361666545524332303A206C6F772D6C6576656C2063616C6C206661696C6564 DUP2 MSTORE POP DUP6 PUSH1 0x1 PUSH1 0x1 PUSH1 0xA0 SHL SUB AND PUSH2 0x1C3E SWAP1 SWAP3 SWAP2 SWAP1 PUSH4 0xFFFFFFFF AND JUMP JUMPDEST DUP1 MLOAD SWAP1 SWAP2 POP ISZERO PUSH2 0x155C JUMPI DUP1 DUP1 PUSH1 0x20 ADD SWAP1 MLOAD PUSH1 0x20 DUP2 LT ISZERO PUSH2 0x1C01 JUMPI PUSH1 0x0 DUP1 REVERT JUMPDEST POP MLOAD PUSH2 0x155C JUMPI PUSH1 0x40 MLOAD PUSH3 0x461BCD PUSH1 0xE5 SHL DUP2 MSTORE PUSH1 0x4 ADD DUP1 DUP1 PUSH1 0x20 ADD DUP3 DUP2 SUB DUP3 MSTORE PUSH1 0x2A DUP2 MSTORE PUSH1 0x20 ADD DUP1 PUSH2 0x1F5F PUSH1 0x2A SWAP2 CODECOPY PUSH1 0x40 ADD SWAP2 POP POP PUSH1 0x40 MLOAD DUP1 SWAP2 SUB SWAP1 REVERT JUMPDEST PUSH1 0x60 PUSH2 0x1C4D DUP5 DUP5 PUSH1 0x0 DUP6 PUSH2 0x1C57 JUMP JUMPDEST SWAP1 POP JUMPDEST SWAP4 SWAP3 POP POP POP JUMP JUMPDEST PUSH1 0x60 DUP3 SELFBALANCE LT ISZERO PUSH2 0x1C98 JUMPI PUSH1 0x40 MLOAD PUSH3 0x461BCD PUSH1 0xE5 SHL DUP2 MSTORE PUSH1 0x4 ADD DUP1 DUP1 PUSH1 0x20 ADD DUP3 DUP2 SUB DUP3 MSTORE PUSH1 0x26 DUP2 MSTORE PUSH1 0x20 ADD DUP1 PUSH2 0x1E9E PUSH1 0x26 SWAP2 CODECOPY PUSH1 0x40 ADD SWAP2 POP POP PUSH1 0x40 MLOAD DUP1 SWAP2 SUB SWAP1 REVERT JUMPDEST PUSH2 0x1CA1 DUP6 PUSH2 0x1948 JUMP JUMPDEST PUSH2 0x1CF2 JUMPI PUSH1 0x40 DUP1 MLOAD PUSH3 0x461BCD PUSH1 0xE5 SHL DUP2 MSTORE PUSH1 0x20 PUSH1 0x4 DUP3 ADD MSTORE PUSH1 0x1D PUSH1 0x24 DUP3 ADD MSTORE PUSH32 0x416464726573733A2063616C6C20746F206E6F6E2D636F6E7472616374000000 PUSH1 0x44 DUP3 ADD MSTORE SWAP1 MLOAD SWAP1 DUP2 SWAP1 SUB PUSH1 0x64 ADD SWAP1 REVERT JUMPDEST PUSH1 0x0 PUSH1 0x60 DUP7 PUSH1 0x1 PUSH1 0x1 PUSH1 0xA0 SHL SUB AND DUP6 DUP8 PUSH1 0x40 MLOAD DUP1 DUP3 DUP1 MLOAD SWAP1 PUSH1 0x20 ADD SWAP1 DUP1 DUP4 DUP4 JUMPDEST PUSH1 0x20 DUP4 LT PUSH2 0x1D31 JUMPI DUP1 MLOAD DUP3 MSTORE PUSH1 0x1F NOT SWAP1 SWAP3 ADD SWAP2 PUSH1 0x20 SWAP2 DUP3 ADD SWAP2 ADD PUSH2 0x1D12 JUMP JUMPDEST PUSH1 0x1 DUP4 PUSH1 0x20 SUB PUSH2 0x100 EXP SUB DUP1 NOT DUP3 MLOAD AND DUP2 DUP5 MLOAD AND DUP1 DUP3 OR DUP6 MSTORE POP POP POP POP POP POP SWAP1 POP ADD SWAP2 POP POP PUSH1 0x0 PUSH1 0x40 MLOAD DUP1 DUP4 SUB DUP2 DUP6 DUP8 GAS CALL SWAP3 POP POP POP RETURNDATASIZE DUP1 PUSH1 0x0 DUP2 EQ PUSH2 0x1D93 JUMPI PUSH1 0x40 MLOAD SWAP2 POP PUSH1 0x1F NOT PUSH1 0x3F RETURNDATASIZE ADD AND DUP3 ADD PUSH1 0x40 MSTORE RETURNDATASIZE DUP3 MSTORE RETURNDATASIZE PUSH1 0x0 PUSH1 0x20 DUP5 ADD RETURNDATACOPY PUSH2 0x1D98 JUMP JUMPDEST PUSH1 0x60 SWAP2 POP JUMPDEST POP SWAP2 POP SWAP2 POP PUSH2 0x1DA8 DUP3 DUP3 DUP7 PUSH2 0x1DB3 JUMP JUMPDEST SWAP8 SWAP7 POP POP POP POP POP POP POP JUMP JUMPDEST PUSH1 0x60 DUP4 ISZERO PUSH2 0x1DC2 JUMPI POP DUP2 PUSH2 0x1C50 JUMP JUMPDEST DUP3 MLOAD ISZERO PUSH2 0x1DD2 JUMPI DUP3 MLOAD DUP1 DUP5 PUSH1 0x20 ADD REVERT JUMPDEST DUP2 PUSH1 0x40 MLOAD PUSH3 0x461BCD PUSH1 0xE5 SHL DUP2 MSTORE PUSH1 0x4 ADD DUP1 DUP1 PUSH1 0x20 ADD DUP3 DUP2 SUB DUP3 MSTORE DUP4 DUP2 DUP2 MLOAD DUP2 MSTORE PUSH1 0x20 ADD SWAP2 POP DUP1 MLOAD SWAP1 PUSH1 0x20 ADD SWAP1 DUP1 DUP4 DUP4 PUSH1 0x0 JUMPDEST DUP4 DUP2 LT ISZERO PUSH2 0x1E1C JUMPI DUP2 DUP2 ADD MLOAD DUP4 DUP3 ADD MSTORE PUSH1 0x20 ADD PUSH2 0x1E04 JUMP JUMPDEST POP POP POP POP SWAP1 POP SWAP1 DUP2 ADD SWAP1 PUSH1 0x1F AND DUP1 ISZERO PUSH2 0x1E49 JUMPI DUP1 DUP3 SUB DUP1 MLOAD PUSH1 0x1 DUP4 PUSH1 0x20 SUB PUSH2 0x100 EXP SUB NOT AND DUP2 MSTORE PUSH1 0x20 ADD SWAP2 POP JUMPDEST POP SWAP3 POP POP POP PUSH1 0x40 MLOAD DUP1 SWAP2 SUB SWAP1 REVERT JUMPDEST PUSH1 0x40 DUP1 MLOAD PUSH1 0x60 DUP2 ADD DUP3 MSTORE PUSH1 0x0 DUP1 DUP3 MSTORE PUSH1 0x20 DUP3 ADD DUP2 SWAP1 MSTORE SWAP2 DUP2 ADD SWAP2 SWAP1 SWAP2 MSTORE SWAP1 JUMP INVALID 0x4F PUSH24 0x6E61626C653A206E6577206F776E65722069732074686520 PUSH27 0x65726F2061646472657373416464726573733A20696E7375666669 PUSH4 0x69656E74 KECCAK256 PUSH3 0x616C61 PUSH15 0x636520666F722063616C6C496E6974 PUSH10 0x616C697A61626C653A20 PUSH4 0x6F6E7472 PUSH2 0x6374 KECCAK256 PUSH10 0x7320616C726561647920 PUSH10 0x6E697469616C697A6564 MSTORE8 PUSH2 0x6665 0x4D PUSH2 0x7468 GASPRICE KECCAK256 PUSH14 0x756C7469706C69636174696F6E20 PUSH16 0x766572666C6F774F776E61626C653A20 PUSH4 0x616C6C65 PUSH19 0x206973206E6F7420746865206F776E6572436F PUSH13 0x6C61746572616C732064656369 PUSH14 0x616C73206E65656420746F206265 KECCAK256 PUSH13 0x657373207468616E2031385361 PUSH7 0x6545524332303A KECCAK256 GASLIMIT MSTORE NUMBER ORIGIN ADDRESS KECCAK256 PUSH16 0x7065726174696F6E20646964206E6F74 KECCAK256 PUSH20 0x756363656564A2646970667358221220264547BE ADDMOD MSTORE8 NOT SWAP13 0xCB PC LOG4 0x21 PUSH16 0x9488D8D9E6350441B24FD170B066A3B4 ORIGIN PUSH26 0xD664736F6C634300060C00330000000000000000000000000000 ",
  "sha1": "4e9b09e92b1f9a341458633655d488a8df5d1ef5",
  "source": "// Current version: 9\n// This contract's version: 10\n// Changes: 1. temporarily modified rebase() to directly rebase out USDs token\n//\t\t\t   held by VaultCore. (normally it first swaps reward & interest\n//\t\t\t   earned in strategies to USDs, then rebases out these USDs)\n// Arbitrum-one proxy address: 0xF783DD830A4650D2A8594423F123250652340E3f\n\n// SPDX-License-Identifier: MIT\npragma solidity >=0.6.12;\nimport \"@openzeppelin/contracts-upgradeable/access/AccessControlUpgradeable.sol\";\nimport \"@openzeppelin/contracts-upgradeable/access/OwnableUpgradeable.sol\";\nimport \"@openzeppelin/contracts-upgradeable/token/ERC20/SafeERC20Upgradeable.sol\";\nimport \"@openzeppelin/contracts-upgradeable/token/ERC20/ERC20Upgradeable.sol\";\nimport \"@openzeppelin/contracts-upgradeable/utils/ReentrancyGuardUpgradeable.sol\";\nimport \"../../interfaces/IStrategy.sol\";\n\n\n/**\n * @title Vault of USDs protocol\n * @dev Control Mint, Redeem, Allocate and Rebase of USDs\n * @dev Live on Arbitrum Layer 2\n * @author Sperax Foundation\n */\ncontract Vault is Initializable, OwnableUpgradeable, ReentrancyGuardUpgradeable {\n\tusing SafeERC20Upgradeable for IERC20Upgradeable;\n\tusing SafeMathUpgradeable for uint;\n\n\tevent CollateralAdded(address collateralAddr, bool addded, address defaultStrategyAddr);\n\tevent StrategyAdded(address strategyAddr, bool added);\n\tevent CollateralAllocated(address indexed collateralAddr, address indexed depositStrategyAddr, uint allocateAmount);\n\tevent TotalValueLocked(\n\t\tuint totalValueLocked,\n\t\tuint totalValueInVault,\n\t\tuint totalValueInStrategies\n\t);\n\n\tstruct collateralStruct {\n\t\taddress collateralAddr;\n\t\tbool added;\n\t\taddress defaultStrategyAddr;\n\t}\n\tstruct strategyStruct {\n\t\taddress strategyAddr;\n\t\tbool added;\n\t}\n\tmapping(address => collateralStruct) public collateralsInfo;\n\tmapping(address => strategyStruct) public strategiesInfo;\n\n\taddress[] public allCollateralAddr;\t// the list of all added collaterals\n\taddress[] public allStrategyAddr;\t// the list of all strategy addresses\n\n\t/**\n\t * @dev contract initializer\n\t */\n\tfunction initialize() public initializer {\n\t\tOwnableUpgradeable.__Ownable_init();\n\t\tReentrancyGuardUpgradeable.__ReentrancyGuard_init();\n\t}\n\n\n\t/**\n\t * @dev authorize an ERC20 token as one of the collaterals supported by USDs mint/redeem\n\t * @param _collateralAddr ERC20 address to be authorized\n\t * @param _defaultStrategyAddr strategy address of which the collateral is allocated into on allocate()\n\t */\n\tfunction addCollateral(address _collateralAddr, address _defaultStrategyAddr) external onlyOwner {\n\t\trequire(!collateralsInfo[_collateralAddr].added, \"Collateral added\");\n\t\trequire(ERC20Upgradeable(_collateralAddr).decimals() <= 18, \"Collaterals decimals need to be less than 18\");\n\t\tcollateralStruct storage addingCollateral = collateralsInfo[_collateralAddr];\n\t\taddingCollateral.collateralAddr = _collateralAddr;\n\t\taddingCollateral.added = true;\n\t\taddingCollateral.defaultStrategyAddr = _defaultStrategyAddr;\n\t\tallCollateralAddr.push(addingCollateral.collateralAddr);\n\t\temit CollateralAdded(_collateralAddr, addingCollateral.added, _defaultStrategyAddr);\n\t}\n\n\t/**\n\t * @dev authorize an strategy\n\t * @param _strategyAddr strategy contract address\n\t */\n\tfunction addStrategy(address _strategyAddr) external onlyOwner {\n\t\trequire(!strategiesInfo[_strategyAddr].added, \"Strategy added\");\n\t\tstrategyStruct storage addingStrategy = strategiesInfo[_strategyAddr];\n\t\taddingStrategy.strategyAddr = _strategyAddr;\n\t\taddingStrategy.added = true;\n\t\tallStrategyAddr.push(addingStrategy.strategyAddr);\n\t\temit StrategyAdded(_strategyAddr, true);\n\t}\n\n\t/**\n\t * @notice harvest USDs held by VaultCore\n\t * @dev VaultCore does not organically hold/generate USDs, transfer USDs to\n\t *\t\tVaultCore manually\n\t */\n\t function harvest() external onlyOwner nonReentrant {\n \t\tIStrategy strategy;\n \t\tcollateralStruct memory collateral;\n \t\tfor (uint y = 0; y < allCollateralAddr.length; y++) {\n \t\t\tcollateral = collateralsInfo[allCollateralAddr[y]];\n \t\t\tif (collateral.defaultStrategyAddr != address(0)) {\n \t\t\t\tstrategy = IStrategy(collateral.defaultStrategyAddr);\n \t\t\t\trequire(strategy.supportsCollateral(collateral.collateralAddr));\n\t\t\t\t_harvestInterest(strategy, collateral.collateralAddr);\n \t\t\t\t_harvestReward(strategy);\n \t\t\t}\n \t\t}\n \t}\n\t/**\n\t * @notice harvest reward token earned in strategies\n\t * @dev rewardLiquidationThreshold is the maximum amount of CRV used to\n\t * \t\trebase; the rest is sent to rwdReserve.\n\t */\n\tfunction _harvestReward(IStrategy strategy) internal {\n\t\taddress rwdTokenAddr = strategy.rewardTokenAddress();\n\t\tuint256 rewardEarned = strategy.checkRewardEarned();\n\t\tif (rewardEarned > 0) {\n\t\t\tuint256 rerwardCollected = strategy.collectRewardToken();\n\t\t}\n\t}\n\n\t/**\n\t * @notice harvest interest earned in strategies\n\t * @dev interestLiquidationThreshold is the maximum interest allowed;\n\t *\t\tif interest earned is higher than that, txn will be reverted. Lower\n\t *\t\trewardLiquidationThreshold and increase interestLiquidationThreshold\n\t */\n\tfunction _harvestInterest(IStrategy strategy, address collateralAddr) internal {\n\t\tcollateralStruct memory collateral = collateralsInfo[collateralAddr];\n\t\tuint interestEarned = strategy.checkInterestEarned(collateralAddr);\n\t\tif (interestEarned > 0) {\n\t\t\t(address interestToken, uint256 interestCollected) = strategy.collectInterest(\n\t\t\t\taddress(this),\n\t\t\t\tcollateral.collateralAddr\n\t\t\t);\n\t\t}\n\t}\n\n\t/**\n\t * @dev allocate collateral on this contract into strategies.\n\t */\n\tfunction allocate() external onlyOwner nonReentrant {\n\t\tIStrategy strategy;\n\t\tcollateralStruct memory collateral;\n\t\tfor (uint y = 0; y < allCollateralAddr.length; y++) {\n\t\t\tcollateral = collateralsInfo[allCollateralAddr[y]];\n\t\t\tif (collateral.defaultStrategyAddr != address(0)) {\n\t\t\t\tstrategy = IStrategy(collateral.defaultStrategyAddr);\n\t\t\t \trequire(strategy.supportsCollateral(collateral.collateralAddr));\n\t\t\t\tuint amtToAllocate = IERC20Upgradeable(collateral.collateralAddr).balanceOf(address(this));\n\t\t\t\tIERC20Upgradeable(collateral.collateralAddr).safeTransfer(collateral.defaultStrategyAddr, amtToAllocate);\n\t\t\t\tstrategy.deposit(collateral.collateralAddr, amtToAllocate);\n\t\t\t\temit CollateralAllocated(collateral.collateralAddr, collateral.defaultStrategyAddr, amtToAllocate);\n\t\t\t}\n\n\t\t}\n\t}\n\n\t/**\n\t * @dev the value of collaterals in this contract and strategies\n\t */\n\tfunction totalValueLocked() public view returns (uint value) {\n\t\tvalue = totalValueInVault().add(totalValueInStrategies());\n\t}\n\n\t/**\n\t * @dev the value of collaterals in this contract\n\t */\n\tfunction totalValueInVault() public view returns (uint value) {\n\t\tfor (uint y = 0; y < allCollateralAddr.length; y++) {\n\t\t\tcollateralStruct memory collateral = collateralsInfo[allCollateralAddr[y]];\n\t\t\tvalue = value.add(_valueInVault(collateral.collateralAddr));\n\t\t}\n\t}\n\n\t/**\n\t * @dev the value of collateral of _collateralAddr in this contract\n\t */\n\tfunction _valueInVault(address _collateralAddr) internal view returns (uint value) {\n\t\tcollateralStruct memory collateral = collateralsInfo[_collateralAddr];\n\t\tuint priceColla = 10**8;\n\t\tuint precisionColla = 10**8;\n\t\tuint collateralAddrDecimal = uint(ERC20Upgradeable(collateral.collateralAddr).decimals());\n\t\tuint collateralTotalValueInVault = IERC20Upgradeable(collateral.collateralAddr).balanceOf(address(this)).mul(priceColla).div(precisionColla);\n\t\tuint collateralTotalValueInVault_18 = collateralTotalValueInVault.mul(10**(uint(18).sub(collateralAddrDecimal)));\n\t\tvalue = collateralTotalValueInVault_18;\n\t}\n\n\t/**\n\t * @dev the value of collaterals in the strategies\n\t */\n\tfunction totalValueInStrategies() public view returns (uint value) {\n\t\tfor (uint y = 0; y < allCollateralAddr.length; y++) {\n\t\t\tcollateralStruct memory collateral = collateralsInfo[allCollateralAddr[y]];\n\t\t\tvalue = value.add(_valueInStrategy(collateral.collateralAddr));\n\t\t}\n\t}\n\n\t/**\n\t * @dev the value of collateral of _collateralAddr in its strategy\n\t */\n\tfunction _valueInStrategy(address _collateralAddr) internal view returns (uint) {\n\t\tcollateralStruct memory collateral = collateralsInfo[_collateralAddr];\n\t\tif (collateral.defaultStrategyAddr == address(0)) {\n\t\t\treturn 0;\n\t\t}\n\t\tIStrategy strategy = IStrategy(collateral.defaultStrategyAddr);\n\t\tif (!strategy.supportsCollateral(collateral.collateralAddr)) {\n\t\t\treturn 0;\n\t\t}\n\t\tuint priceColla = 10**8;\n\t\tuint precisionColla = 10**8;\n\t\tuint collateralAddrDecimal = uint(ERC20Upgradeable(collateral.collateralAddr).decimals());\n\t\tuint collateralTotalValueInStrategy = strategy.checkBalance(collateral.collateralAddr).mul(priceColla).div(precisionColla);\n\t\tuint collateralTotalValueInStrategy_18 = collateralTotalValueInStrategy.mul(10**(uint(18).sub(collateralAddrDecimal)));\n\t\treturn collateralTotalValueInStrategy_18;\n\t}\n}\n",
  "sourcePath": "contracts/vault/Vault.sol",
  "type": "contract"
}